:0200000480007A
:10007400970100409381C178138541D3138601D839
:100084003306A64093050000EF30802113050000DD
:10009400630805001305000097000000E700000056
:1000A400EF304016032501009305410013060000BC
:1000B400EF10407E6F00805A130101FF232481005A
:1000C40083C741D6232611006392070293070000D9
:1000D400638A0700374500801305C54C970000006C
:1000E400E7000000930710002382F1D68320C100AB
:1000F40003248100130101016780000093070000BD
:10010400638C070037450080938581D61305C54C61
:10011400170300006700000067800000130101FF5F
:100124002326810013040101B70700C09387070247
:1001340023A00700B707003023A007001300000026
:100144000324C1001301010167800000130101FFB2
:1001540023268100130401013715000013050580CF
:100164007310453073250030136585007310053016
:10017400370500C0832505060326450693954500EB
:10018400B385C50037860000130606E0B385C500B5
:1001940013910501B71100C0938101801300000081
:1001A4000324C1001301010167800000130101FE53
:1001B400232E8100130401022326A4FE2324B4FE6B
:1001C400B70700C0938707030327C4FE23A0E700F3
:1001D400B70700C093874703032784FE23A0E700E3
:1001E400130000000324C101130101026780000011
:1001F400130101FE232E8100130401022326A4FE11
:100204002324B4FE2322C4FEB70700C0938747000B
:10021400032744FE23A0E700B70700C093878700A5
:100224000327C4FE23A0E700B70700C0032784FE0A
:1002340023A0E700B707003023A007001300000045
:100244000324C1011301010267800000130101FEB0
:10025400232E1100232C8100130401022326A4FE63
:100264002324B4FE2322C4FE2320D4FEB70700C0F7
:1002740093870710032704FE23A0E700032644FE08
:10028400832584FE0325C4FEEFF09FF613000000CF
:100294008320C1010324810113010102678000004E
:1002A400130101FD232611022324810213040103F7
:1002B4002326A4FE2324B4FE2322C4FE2320D4FE3A
:1002C400232EE4FCB70700C0938747100327C4FD1F
:1002D40023A0E700832604FE032644FE832584FE30
:1002E4000325C4FEEFF09FF6130000008320C10233
:1002F400032481021301010367800000130101FD3F
:100304002326110223248102130401032326A4FEBD
:100314002324B4FE2322C4FE2320D4FE232EE4FC93
:10032400232CF4FCB70700C093878710032784FDB0
:1003340023A0E7000327C4FD832604FE032644FE0E
:10034400832584FE0325C4FEEFF09FF5130000000F
:100354008320C1020324810213010103678000008A
:10036400130101FD23261102232481021304010336
:100374002326A4FE2324B4FE2322C4FE2320D4FE79
:10038400232EE4FC232CF4FC232A04FDB70700C02D
:100394009387C710032744FD23A0E700832784FD28
:1003A4000327C4FD832604FE032644FE832584FE1E
:1003B4000325C4FEEFF09FF4130000008320C10264
:1003C400032481021301010367800000130101FE6D
:1003D400232E8100130401022326A4FE2324B4FE49
:1003E4002322C4FE3707003083A7C1D203270700A6
:1003F40023A0E700B70700C003A70700832784FEF4
:1004040023A0E700B70700C09387470003A70700AE
:10041400832744FE23A0E700B70700C09387870023
:1004240003A707008327C4FE23A0E70013000000EE
:100434000324C1011301010267800000130101FEBE
:10044400232E1100232C8100130401022326A4FE71
:100454002324B4FE2322C4FE2320D4FE032644FE18
:10046400832584FE0325C4FEEFF05FF6B70700C0C2
:100474009387071003A70700832704FE23A0E70040
:10048400130000008320C101032481011301010230
:1004940067800000130101FD232611022324810239
:1004A400130401032326A4FE2324B4FE2322C4FE42
:1004B4002320D4FE232EE4FC832604FE032644FEDC
:1004C400832584FE0325C4FEEFF05FF7B70700C061
:1004D4009387471003A707008327C4FD23A0E700E1
:1004E400130000008320C1020324810213010103CD
:1004F40067800000130101FD2326110223248102D9
:10050400130401032326A4FE2324B4FE2322C4FEE1
:100514002320D4FE232EE4FC232CF4FC0327C4FD67
:10052400832604FE032644FE832584FE0325C4FE9D
:10053400EFF05FF6B70700C09387871003A70700A3
:10054400832784FD23A0E700130000008320C10259
:10055400032481021301010367800000130101FDDC
:100564002326110223248102130401032326A4FE5B
:100574002324B4FE2322C4FE2320D4FE232EE4FC31
:10058400232CF4FC232A04FD832784FD0327C4FDC4
:10059400832604FE032644FE832584FE0325C4FE2D
:1005A400EFF05FF5B70700C09387C71003A70700F4
:1005B400832744FD23A0E700130000008320C10229
:1005C400032481021301010367800000130101FD6C
:1005D40023268102130401032326A4FE2324B4FE4C
:1005E4002322C4FE2320D4FE232EE4FCB70700C03C
:1005F40003A70700832784FE23A0E700B70700C0F2
:100604009387470003A70700832744FE23A0E7003E
:10061400B70700C09387870003A707008327C4FE9A
:1006240023A0E700B70700C09387071003A70700BC
:10063400832704FE23A0E700B70700C09387471071
:1006440003A707008327C4FD23A0E70013000000CD
:100654000324C1021301010367800000130101FE9A
:10066400232E8100130401022326A4FE130000009C
:100674000324C1011301010267800000130101FD7D
:100684002326810213040103272EA4FCB70700804C
:100694002326F4FE8327C4FED3F717D00727C4FD0F
:1006A400D377F7102724F4FE872784FED39717C047
:1006B400130770FFB307F7402322F4FE832744FE99
:1006C400138507000324C10213010103678000009E
:1006D400130101FE232E8100130401022726A4FE28
:1006E4008727C4FE530700F0D397E7A06388070069
:1006F4008727C4FED397F7206F0080008727C4FEA6
:100704005385F7200324C10113010102678000000F
:10071400130101FD23261102232481021304010382
:10072400272EA4FC272CB4FC0727C4FD872784FDAF
:10073400D397E7A0638607008727C4FD6F00800076
:10074400872784FD2726F4FE0727C4FD872784FD19
:10075400D317F7A0638607008727C4FD6F008000C6
:10076400872784FD2724F4FE072784FE8727C4FEF9
:10077400D377F7085385F720EF100035D30705E04A
:10078400538507F0EF20C05B13070500938705002E
:10079400B736008003A6063C83A6463C1305070033
:1007A40093850700EF10900F13070500938705004A
:1007B4001305070093850700EF20C069D30705E000
:1007C400538507F0EF1080395307A5208727C4FE0F
:1007D400D3F7E7002722F4FE872744FE5385F7204A
:1007E4008320C102032481021301010367800000F6
:1007F400130101FE232E8100130401022326A4FE0B
:100804008327C4FE93F71700639807008327C4FE69
:10081400938717006F00C0008327C4FE9387F7FFF8
:10082400138507000324C10113010102678000003E
:10083400130101FF232681001304010193078000A3
:1008440003A7070023ACE1D29307C00083A70700E6
:10085400939727001387070023A0E1D4930700018F
:1008640083A70700939727001387070023A2E1D4E7
:100874009307400183A70700939727001387070076
:1008840023A4E1D49307800183A70700939727004B
:100894001387070023A6E1D49307C00183A70700A9
:1008A400939727001387070023A8E1D49307000236
:1008B40083A70700939727001387070023AAE1D48F
:1008C4009307400283A70700939727001387070025
:1008D40023ACE1D49307800283A7070093972700F2
:1008E4001387070023AEE1D49307C00283A7070050
:1008F400939727001387070023A0E1D693070003EB
:1009040087A7070027AEF1D2130000000324C1001B
:100914001301010167800000130101FD2326110268
:100924002324810213040103232EA4FC232604FEA2
:100934006F0000038327C4FD93851700930700000D
:1009440013070000930600000326C4FE13051000DD
:10095400EFF0DF9A8327C4FE938717002326F4FE63
:1009640083A781D3939717000327C4FEE364F7FC9E
:1009740013000000130000008320C102032481023D
:100984001301010367800000130101FD23261102F6
:100994002324810213040103232EA4FC232CB4FC7E
:1009A40003A741D5832784FD93976700B307F70016
:1009B4002326F4FE8327C4FE83A787012324F4FEA1
:1009C400032584FDEFF0DFE22322A4FE8327C4FD88
:1009D400938517009307000013070000832684FD06
:1009E400032644FE13052000EFF05F918327C4FD26
:1009F4009385170083A781D313971700832784FE59
:100A04003306F7009307000013070000832684FDD4
:100A140013054000EFF09F8E8327C4FD93853700B4
:100A2400930700001307000093060000032684FDCB
:100A340013056000EFF09F8C8327C4FD9385170096
:100A44008327C4FE03A607009307000013070000D2
:100A5400832684FD1305A000EFF05F8A8327C4FD7D
:100A6400938517008327C4FE9387470003A60700D6
:100A74009307000013072000832684FD1305A000BC
:100A8400EFF0DF87130000008320C10203248102FA
:100A94001301010367800000130101FD23261102E5
:100AA4002324810213040103232EA4FC232CB4FC6D
:100AB400232AC4FC03A741D5832784FD93976700A9
:100AC400B307F7002326F4FE8327C4FE87A7070095
:100AD4002722F4FE8327C4FE87A747002724F4FEB9
:100AE4008327C4FD93851700930744FE83A607005C
:100AF400930744FE9387470003A70700930700006A
:100B0400032644FD13053000EFF04FFF13000000EF
:100B14008320C102032481021301010367800000C2
:100B2400130101FD2326110223248102130401036E
:100B3400232EA4FC232CB4FC232AC4FC2328D4FC99
:100B440003A741D5832784FD93976700B307F70074
:100B5400938707012326F4FE8327C4FE83A7070097
:100B6400938507000325C4FEEFF04FE48327C4FEFA
:100B7400138747008327C4FE9387470083A7070092
:100B84009385070013050700EFF04FE2930744FD38
:100B940087A707008327C4FE27A0F700130704FDD7
:100BA4008327C4FE938747008727070027A0F70001
:100BB400130000008320C1020324810213010103F6
:100BC40067800000130101FD232611022324810202
:100BD40013040103232EA4FC232CB4FC232AC4FCF9
:100BE40083A781D393971700032784FDB307F740A6
:100BF4002326F4FE03A7C1D58327C4FE9397470099
:100C0400B307F700938787002324F4FE8327C4FDEA
:100C140093851700832784FE83A60700832784FE19
:100C24009387470003A7070093070000032644FDAA
:100C340013055000EFF08FEC130000008320C10275
:100C4400032481021301010367800000130101FDE5
:100C5400232611022324810213040103232EA4FC5E
:100C6400232CB4FC232AC4FC2328D4FC03A741D599
:100C7400832784FD93976700B307F7009387870062
:100C84002326F4FE8327C4FE83A707009385070069
:100C94000325C4FEEFF08FD18327C4FE13874700DA
:100CA4008327C4FE9387470083A707009385070023
:100CB40013050700EFF08FCF930744FD87A70700C4
:100CC4008327C4FE27A0F700130704FD8327C4FE6F
:100CD400938747008727070027A0F7001300000029
:100CE4008320C102032481021301010367800000F1
:100CF400130101FA232E1104232C81041304010689
:100D04002326A4FA2324B4FA03A741D5832784FA1B
:100D140093976700B307F700232CF4FC03A701D6CD
:100D2400832784FA93D7170093974700B307F700F4
:100D3400232AF4FC832784FD83A787012328F4FC5A
:100D440003A7C1D5832704FD93974700B307F70092
:100D54002326F4FC832784FA93F71700639807008B
:100D640093071000A307F4FE6F008000A30704FE9E
:100D74000347F4FE93071000631AF70E232404FEBE
:100D84006F00C00D232204FE6F000009032744FDF9
:100D9400832744FE93961700832784FEB387F600C7
:100DA40093972700B307F70007A707000327C4FC9E
:100DB400832744FE93972700B307F70087A707000C
:100DC4005377F700032784FD832744FE9397270076
:100DD400B307F70087A68700032784FD832744FE13
:100DE4009387470093972700B307F70087A7070067
:100DF400D3F7F608D377F700832744FE93972700A9
:100E0400938707FFB387870027A6F7FC832744FE51
:100E1400938717002322F4FE032744FE9307100050
:100E2400E3F6E7F68327C4FA938517009307C4FB18
:100E340003A607009307C4FB9387470083A6070014
:100E4400832784FE032784FA13057000EFF00FCB89
:100E5400832784FE938717002324F4FE032784FE4C
:100E640093071000E3F0E7F26F00000F232004FE65
:100E74006F00C00D232E04FC6F000009032744FDFE
:100E8400832704FE939617008327C4FDB387F600D7
:100E940093972700B307F70007A707000327C4FCAD
:100EA4008327C4FD93972700B307F70087A707009C
:100EB4005377F700032784FD8327C4FD9397270006
:100EC400B307F70087A68700032784FD8327C4FDA3
:100ED4009387470093972700B307F70087A7070076
:100EE400D3F7F608D377F7008327C4FD9397270039
:100EF400938707FFB387870027A2F7FC8327C4FDE6
:100F040093871700232EF4FC0327C4FD93071000D6
:100F1400E3F6E7F68327C4FA93851700930744FBA7
:100F240003A60700930744FB9387470083A60700A3
:100F3400832704FE032784FA13057000EFF00FBC27
:100F4400832704FE938717002320F4FE032704FE5F
:100F540093071000E3F0E7F28327C4FA9385370080
:100F6400930700001307000093060000032684FA89
:100F740013059000EFF08FB8130000008320C10523
:100F8400032481051301010667800000130101FC9D
:100F9400232E1102232C810213040104232EA4FC0A
:100FA400232CB4FC232AC4FC2328D4FC2326E4FCED
:100FB400930784FD87A707002726F4FE930744FDC3
:100FC40087A707002724F4FE872584FE0725C4FE8F
:100FD400EFF00FF4D307A5202722F4FE8327C4FDE6
:100FE40093851700930744FE83A607009307000028
:100FF4000327C4FC032604FD13058000EFF00FB0A3
:10100400130000008320C10303248103130101049E
:1010140067800000130101FD2326110223248102AD
:1010240013040103232EA4FC232CB4FC232AC4FCA4
:101034002328D4FC03A741D5832784FD9397670015
:10104400B307F7002326F4FE8327C4FE93878702A1
:101054002324F4FE832704FD93972700032784FEAB
:10106400B306F700832704FD93972700032784FE24
:10107400B307F70083A707009385070013850600CD
:10108400EFF0CF92130744FD832704FD93972700C5
:10109400832684FEB387F6008727070027A0F7007E
:1010A400130000008320C102032481021301010301
:1010B40067800000130101FD23261102232481020D
:1010C40013040103232EA4FC232CB4FC03A741D551
:1010D400832784FD93976700B307F7002324F4FE66
:1010E400832784FE938787022322F4FE832744FE0A
:1010F40087A70700832744FE9387470007A70700B5
:10110400D305E7205385F720EFF08FE02720A4FED6
:10111400232604FE6F0000048327C4FE9397270050
:10112400032744FEB307F70007A707008327C4FE7D
:1011340093972700032744FEB307F700872704FE8D
:10114400D377F70827A0F7008327C4FE93871700F7
:101154002326F4FE0327C4FE93071000E3FEE7FAF8
:101164008327C4FD93851700832744FE03A6070045
:101174009307000013071000832684FD1305A000C5
:10118400EFF0CF978327C4FD93851700832744FE90
:101194009387470003A60700930700001307300056
:1011A400832684FD1305A000EFF04F958327C4FD2B
:1011B400938537009307000013070000930600008F
:1011C400032684FD1305C000EFF04F938327C4FD6D
:1011D400938547009307000013070000930600005F
:1011E400032684FD1305D000EFF04F911300000097
:1011F4008320C102032481021301010367800000DC
:10120400130101FD23261102232481021304010387
:10121400232EA4FC232CB4FC232AC4FC2328D4FCB2
:10122400930784FD87A707002726F4FE0725C4FE3D
:10123400EF009009D307A5202724F4FE8327C4FDDB
:1012440093851700930784FE83A607009307000085
:10125400032704FD032644FD1305B000EFF00F8AB5
:10126400130000008320C10203248102130101033F
:1012740067800000130101FE232E1100232C81003E
:10128400130401022326A4FE2324B4FE2322C4FE55
:101294002320D4FE03A741D5832784FE93976700B8
:1012A4003307F700832704FE9387C700939727002B
:1012B400B306F70003A741D5832784FE93976700FD
:1012C4003307F700832704FE9387C700939727000B
:1012D400B307F70083A7070093850700138506006B
:1012E400EFE0DFEC930744FE83A641D5032784FE99
:1012F400131767003387E60087A70700832704FED8
:101304009387C70093972700B307F70027A0F70038
:10131400130000008320C101032481011301010291
:1013240067800000130101FD23261102232481029A
:1013340013040103232EA4FC232CB4FC232AC4FC91
:101344002328D4FC232604FE03A741D5832784FD48
:1013540093976700B307F700938707032324F4FEEA
:10136400832784FE07A70700832784FE938747000B
:1013740087A70700D377F7085385F720EFF04FB519
:101384005307A5208727C4FED3F7E7002726F4FEDA
:10139400832784FE9387870007A70700832784FE9B
:1013A4009387C70087A70700D377F7085385F720EB
:1013B400EFF00FB25307A5208727C4FED3F7E70049
:1013C4002726F4FE03A741D5832784FD939767005E
:1013D400B307F7008727C4FE27A2F7021300000013
:1013E4008320C102032481021301010367800000EA
:1013F400130101FD23261102232481021304010396
:10140400232EA4FC232CB4FC03A741D5832784FDFD
:1014140093976700B307F70087A747022726F4FED0
:1014240003A741D5832784FD93976700B307F7008B
:10143400938787022324F4FE03A741D5832784FDE1
:1014440093976700B307F700938707022322F4FEFC
:1014540087A7C1D30727C4FED397E7A063940700E7
:101464006F00000D0725C4FEEFF04FA193070500A0
:10147400D3F717D02720F4FE8327C4FDD3F717D062
:10148400072704FED397E7A0638C0704832744FE51
:1014940083A7070093850700032544FEEFE01FD1CF
:1014A400872704FE539717C0832744FE23A0E70031
:1014B400872704FED39517C0832784FE83A60700DD
:1014C400832784FE9387470003A707009307000040
:1014D400032684FD1305E000EFE05FE26F004005A2
:1014E400832744FE83A7070093850700032544FE52
:1014F400EFE0DFCB8327C4FD13871700832744FE67
:1015040023A0E7008327C4FD93851700832784FE67
:1015140083A60700832784FE9387470003A7070059
:1015240093070000032684FD1305E000EFE01FDDB0
:10153400130000008320C10203248102130101036C
:1015440067800000130101FB232611042324810476
:1015540013040105232EA4FA232CB4FA232AC4FA73
:101564002328D4FA03A741D5832784FB93976700E4
:10157400B307F700232EF4FC8327C4FD83A70702D7
:101584000327C4FB631CF720930744FB07A707004A
:101594008327C4FD87A70700D377F7082724F4FC23
:1015A400930704FB07A707008327C4FD87A7470009
:1015B400D377F7082726F4FC8327C4FB9385170009
:1015C4008327C4FD03A7C70183A781D3939717007B
:1015D4003306F700930784FC83A60700930784FC73
:1015E4009387470003A70700930700001305F00043
:1015F400EFE0DFD00327C4FD8327C4FD83A70700E2
:101604009385070013050700EFE05FBA8327C4FD45
:10161400138747008327C4FD9387470083A70700E8
:101624009385070013050700EFE05FB8930744FBB9
:1016340087A707002720F4FC930704FB87A707006C
:101644002722F4FC872704FC8327C4FD27A0F70086
:10165400872744FC8327C4FD27A2F7008327C4FD02
:1016640083A7C701232CF4FC03A701D4832784FD9B
:1016740093972700B307F70083A707002326F4FEF8
:1016840003A701D4832784FD93871700939727002A
:10169400B307F70083A70700232AF4FC03A781D428
:1016A400832784FD93972700B307F70083A70700D8
:1016B4002324F4FE03A781D4832784FD9387170092
:1016C40093972700B307F70083A707002328F4FCA8
:1016D400232204FE832784FB93F71700639A0700F1
:1016E400832784FB938717002320F4FE6F004009AF
:1016F400832784FB9387F7FF2320F4FE6F004008C1
:101704000327C4FE832744FD6370F7028327C4FEC6
:10171400939717002322F4FE8327C4FE93871700B0
:101724002326F4FE6F00000303A701D5832784FE5C
:1017340093972700B307F70083A707009397170031
:10174400938717002322F4FE832784FE93871700D0
:101754002324F4FE032744FE832704FE6302F702D6
:101764008327C4FB93851700930700001307000029
:1017740093060000032644FE13051000EFE01FB893
:101784000327C4FE832744FDE36CF7F6032784FE96
:10179400832704FDE366F7F66F0080001300000062
:1017A4008320C10403248104130101056780000020
:1017B400130101FD232611022324810213040103D2
:1017C400232EA4FC232CB4FC232AC4FC2328D4FCFD
:1017D40083A781D393971700032784FDB307F740AA
:1017E4002326F4FE03A7C1D58327C4FE939747009D
:1017F400B307F7002324F4FE930744FD87A70700EB
:101804002720F4FE930704FD87A707002722F4FE90
:10181400832784FE13878700832784FE93878700AA
:1018240083A707009385070013050700EFE01F98BF
:10183400832784FE1387C700832784FE9387C7000A
:1018440083A707009385070013050700EFE01F96A1
:10185400832784FE07A78700872704FED377F70032
:10186400832784FE27A4F700832784FE07A7C700E5
:10187400872744FED377F700832784FE27A6F70043
:10188400130000008320C102032481021301010319
:1018940067800000130101FD232611022324810225
:1018A40013040103EFE09F8AEFE09FF8930784FDA0
:1018B4001307C4FD930604FE130644FE930584FE39
:1018C4001305C4FEEFE01FC38327C4FE1307F00013
:1018D4006366F71E13972700B7370080938707388E
:1018E400B307F70083A7070067800700832784FEF8
:1018F40013850700EFF04F826F00801C832784FE5E
:10190400032744FE9305070013850700EFF0CF87F4
:101914006F00001B832784FE032744FE832604FEF6
:10192400138606009305070013850700EFF0CF9692
:101934006F000019832784FE032744FE032604FE58
:101944008326C4FD9305070013850700EFF04F9D20
:101954006F000017832784FE032744FE832604FEBA
:10196400138606009305070013850700EFF08FA583
:101974006F000015832784FE032744FE032604FE1C
:101984008326C4FD9305070013850700EFF00FAC11
:101994006F000013832784FE032744FE930507008A
:1019A40013850700EFF0CFB46F008011832784FE06
:1019B400832544FE032604FE8326C4FD032784FDF9
:1019C40013850700EFF08FDC6F00800F832784FE00
:1019D400032744FE032604FE8326C4FD9305070063
:1019E40013850700EFF00FE36F00800D832784FE5B
:1019F400032744FE9305070013850700EFF08FEBE0
:101A04006F00000C832784FE032744FE032604FE94
:101A14008326C4FD9305070013850700EFF04FFEEE
:101A24006F00000A832784FE032744FE032604FE76
:101A34008326C4FD9305070013850700EFF09F83F9
:101A44006F000008832784FE032744FE032604FE58
:101A54008326C4FD9305070013850700EFF09F8CD0
:101A64006F000006832784FE032744FE93050700C6
:101A740013850700EFF0DF976F008004832784FE4F
:101A8400032744FE032604FE8326C4FD93050700B2
:101A940013850700EFF01FAB6F008002832784FEDD
:101AA400032744FE032604FE8326C4FD9305070092
:101AB40013850700EFF0DFCF6F00800013000000F4
:101AC400EFE0CFE56FF09FDE130101FE27268100D2
:101AD4005304A52027249100232E1100EF00400F6A
:101AE400D304A52053058420EF00C059630E0500DC
:101AF40087A7C1C2D39787A06394070287A701C3AE
:101B0400D317F4A0639207048320C1015385942062
:101B14000724C100872481001301010267800000AB
:101B2400EF10C06D87A481C28320C10193072002F6
:101B34002320F500538594200724C10087248100C5
:101B44001301010267800000EF10406B930720022D
:101B5400D30400F02320F5006FF01FFB130101FEF6
:101B6400272681005304A520232E1100EF0080278F
:101B7400D32784A063840702D30700F0D39787A0F8
:101B8400639E0700D327F4A063820702EF10006767
:101B940007A541C3930720022320F5008320C10138
:101BA4000724C1001301010267800000EF100065E3
:101BB4008320C1010724C100930710022320F500EC
:101BC400373500801305853C130101026F00804CFA
:101BD400D30705E0B706807F139717001357170044
:101BE40063EEE60C93D5F7016304D716B776B142DA
:101BF4009386762163C0F61463C20714B776B13EA8
:101C04009386862163F4E60CB716853F93861659AE
:101C140063ECE61813962500138741D13307C700F8
:101C240007260700D38707F09386C1D0B386C60082
:101C340053F6C7081307100087A706003307B740F9
:101C44003307B7405377F608D376E710D30707E096
:101C540007A741C487A581C443F7E65887A5C1C433
:101C64004377D75887A501C54377D75887A541C57A
:101C74004377D758D38507F04B77D758D3F6E51079
:101C84006300071687A501C6930630F853F7E508E5
:101C9400D3F6E61807A7C1C5D3F7D708D3F7C70803
:101CA400D377F708D38707E0634CD70A1317770174
:101CB4003307F700530507F067800000D377A500CA
:101CC400538707E0530507F067800000B706003428
:101CD400636AD70A538707F087A741C45377E7108D
:101CE40087A681C4C377F76887A6C1C4C3F7E7682A
:101CF40087A601C5C3F7E76887A641C5C377F76818
:101D0400D38607F04B77F768D3F6E61087A7C1C5EB
:101D140007A601C65377C708D3F6E618538707F01A
:101D2400D3F6E608D3F7D708538707E0530507F03F
:101D340067800000130500006F00C02FB7F6CF4284
:101D44009386561BE3FCE6EA130500006F00002EA1
:101D540013070000E39805F6530705E06FF09FF6BC
:101D640013074706131777013307F700530707F0E4
:101D740087A741C6D377F710538707E0530507F0C9
:101D84006780000007A781C5D38607F087A7C1C570
:101D940053F7E600D396E7A0E38E06F2D3F7F600F6
:101DA400538707E06FF01FF2939525001387C1D185
:101DB4003307B70007270700D38607F087A781C337
:101DC400C3F7F67007A6C1C307A701C4539707C09A
:101DD400D37707D04BF6C768D3F7E7106FF09FE6C9
:101DE4006FF0DFF2D30705E0139717006300070ACB
:101DF4001387070063C4070A3706807F63D2C714BA
:101E0400B70680001308000063DAD70087A7C1C6AD
:101E1400130870FED377F510538707E0B7058000E9
:101E24009386F5FFB7074B00B376D700938707B2C5
:101E3400B387F600B3F7B7003706803F33C6C70051
:101E44001385F600938505FF3366D600B375B50098
:101E540087A7C1C5530706F013577741130717F82F
:101E64003307070193D777415375F708B387E70022
:101E7400639E0502D30700F05327F5A06306070C01
:101E84005385F7206390071467800000D30700F0A0
:101E940007A581C65375F518678000005375A5081A
:101EA400D30700F05375F5186780000087A601C6B4
:101EB4003766CFFF37C73500D376D500130606C380
:101EC400130787283386C6003307D740D376D5183F
:101ED40007A741C887A781C83367C700D3F007D0D5
:101EE400D3F5D61053F6B5104377E67887A781C7A4
:101EF40007A0C1C7C377F60007A0C1C84377C700CE
:101F040007A001C8C3F7C70007A001C94377C700EA
:101F14005377B710C3F7C7706358E00407A741C7E6
:101F24005377E5105377A710D3F7E700D3F7D7100B
:101F3400639E07045377F7085375E508678000002C
:101F44005375A5006780000007A701C787A641C78E
:101F5400D377A5104B77E568D3F7E71063960704AA
:101F64005375F50867800000D377F508D3F7D710C9
:101F7400E38807FE07A701C4CBF7E078D3F7A708E7
:101F840007A5C1C347F5A0786780000087A601C4F0
:101F9400C3F7D0785377F7085377A70807A5C1C3C9
:101FA40047F5A07067800000D3F607D007A701C4E7
:101FB400CBF7E678D3F7A70807A5C1C347F5A678FA
:101FC4006780000053F507D087A701C407A7C1C3E2
:101FD400D377F5104375E57867800000130101FE9F
:101FE400232C810027268100232E11005304A520D1
:101FF40013040500EF1080208320C10123208500F5
:1020040003248101530584200724C1001301010224
:1020140067800000D307A52063040500D317A5201B
:1020240053F5A710130520026FF05FFB07A541C904
:102034006FF05FFE07A581C96FF0DFFD630C05003B
:1020440007A5C1C9D30700F0130520025375F5187D
:102054006FF0DFF807A5C1C5D30700F01305200210
:102064005375F5186FF09FF7D377A508D327A5A06C
:1020740053F5F71863860700130510026FF01FF677
:1020840067800000531505E01375153813351500E6
:102094006780000007A501CA67800000130101FEE4
:1020A400232E1100232C8100232A910023282101AF
:1020B4002326310123244101F3292000B70710000E
:1020C4009387F7FF33F7B70013D44501131737008D
:1020D4001358D501B3F7D70093D846011374F47F8E
:1020E40093D4F5013368E80093F8F87F1357D601C9
:1020F4009397370093D6F601131535003367F7002D
:1021040013163600B3051441639ED44A9386050022
:102114006350B01A639A080AB367C7006390070252
:102124009307F07F6380F508130708001306050082
:1021340093070000938805006F00C0029387F5FFA2
:10214400639E07043306C5003307E8003335A60051
:102154003307A700B7068000B376D7006390064222
:102164009308100093767600130807001305060001
:10217400E38C0620930600001307200093E7170062
:102184006396E93A6388043C130785003336A70055
:102194003308C800130507006F00D02B9306F07FA7
:1021A4006394D50CB365A800E3880532935768019E
:1021B40093C7170093F71700939747001307080076
:1021C400130605006F0040129307F07F631CF400B0
:1021D400B365A800E39C05FC130800009308F07F96
:1021E4006F00C0649307800363C4B708B707800017
:1021F4003367F700938705009306F00163C0F60880
:1022040093050002B385F540B316B700B358F60042
:10221400B315B600B3E61601B335B000B3E6B600A5
:10222400B357F7003386A600B3870701B336D60049
:102234003387D70093080400B7078000B377F7000B
:102244006382072C938818009307F07F639AF8320F
:1022540063820936930730006398F934638C04343D
:10226400930600006F00802B93068003E3D6F6F8F4
:1022740093070000930610006FF0DFFA938607FEC1
:1022840093080002B356D700930500006388170132
:1022940093050004B385F540B315B700B3E5C50055
:1022A400B335B000B3E6B600930700006FF09FF7B4
:1022B40063820510B3868840631E0404B367A800D4
:1022C400639807029307F07F93880600639CF622C5
:1022D400B365C700E38A05209357670193C71700C6
:1022E40093F71700939747009308F07F6FF09FE7E9
:1022F4009387F6FFE38807E49305F07FE38AB6FC4F
:102304009306800363DEF602930700009306100031
:102314006F00C0059307F07F639AF800B365C700A8
:10232400639C0512130800006F004050930780035C
:10233400E3CCD7FCB70780003368F8009387060026
:102344009306F00163CEF60293050002B385F540CF
:10235400B316B8003353F500B315B500B3E6660001
:10236400B335B000B3E6B600B357F8003386C60001
:10237400B387E700B336D6003387D7006FF0DFEBBF
:10238400938607FE13030002B356D800930500009A
:102394006388670093050004B385F540B315B8005E
:1023A400B3E5A500B335B000B3E6B600930700006B
:1023B4006FF0DFFB9305140093F7E57F639E07102E
:1023C400B365A800631004046382056EB366C70096
:1023D400638A065E3306C500B336A6003307E800F9
:1023E4003308D700370780003377E8001305060069
:1023F400630A075C370780FF1307F7FF3377E800AA
:102404006FF01FD69306F07F631AD402639605001B
:10241400E39C88EC6FF09FF0B7064000B376D800D9
:102424003363C700E380060E6398880863100304CF
:1024340013070800130605006FF0DFD21304000031
:102444006396D806B366C700639E0602E39205FE50
:10245400130800006F0010039357670193C7170018
:1024640093F71700939747006FF0DFCFB70740004B
:10247400B377F700638E0704130400006F00800134
:1024840013040001B7074000B377F700638E070019
:1024940063800502930400003708400093050000A0
:1024A4009308F07F6F00007E130400016398050019
:1024B400930704006FF05FE3130400003367C70061
:1024C400E31A07FC13070800130605006FF05FFE0C
:1024D400130400016FF09FFE9307F07F6388F502F9
:1024E4003306C5003335A6003307E8003307A700D9
:1024F4009317F7011356160033E6C7001357170056
:1025040093880500930700006FF0DFC56382097CA0
:10251400930730006394F904638C047A1308F0FF82
:102524001305F0FF9308E07F930750001307300072
:102534006380E972639009021377F5001306400083
:10254400630AC700130745003336A7003308C800E1
:1025540013050700639606586F0000639307200075
:102564006394F900639604761308F0FF1305F0FFF3
:102574009308E07F930750006F00006193082000E8
:10258400B70780FF9387F7FFB377F7001357160059
:10259400137616003367C7001396F7013366E60017
:1025A40013D717006FF01FF693072000E39EF9FA84
:1025B400E38C04FA13080000930500001304500090
:1025C4006F00406C6350B01063940804B367C70095
:1025D400E38807B49387F5FF639E07003306C5407D
:1025E4003307E8403335C5003307A740930810008C
:1025F4006F0000089306F07FE386D5BA9306800344
:1026040063D6F60293070000930610006F00C0041F
:102614009307F07FE30EF4BA93078003E3C4B7FE95
:10262400B70780003367F700938705009306F0012E
:1026340063C0F60693050002B385F540B316B700F0
:10264400B358F600B315B600B3E61601B335B000BF
:10265400B3E6B600B357F700B306D540B307F84066
:102664003337D500138606003387E7409308040008
:1026740037098000B3772701E38607E81309F9FFD8
:1026840033792701130A0600138408006F00002E13
:10269400938607FE93080002B356D7009305000003
:1026A4006388170193050004B385F540B315B7009B
:1026B400B3E5C500B335B000B3E6B6009307000038
:1026C4006FF09FF9638A0512B3858840631C040682
:1026D400B367A800639807029307F07F6392F53C01
:1026E400B365C700638005609357670193C71700FC
:1026F40093F71700939747009308F07F938406009D
:102704006FF05FA69387F5FF639007023305A64039
:10271400B337A60033070741130605003307F74014
:10272400938406006FF09FEC1303F07FE38A65FA4D
:102734009305800363D4F504930700009305100008
:102744006F0080069307F07F6390F802B365C700BB
:102754006380055A9357670193C7170093F71700CF
:10276400939747006FF09FF993078003E3C6B7FC84
:10277400B70780003368F800938705009305F001DC
:1027840063C2F504130300023303F340B315680076
:10279400335EF50033136500B3E5C50133336000E0
:1027A400B3E56500B357F800B305B6403335B6005A
:1027B400B307F740138605003387A74093840600C8
:1027C4006FF01FEB938507FE130E0002B355B8009C
:1027D400130300006388C701130300043303F340A9
:1027E400331368003363A30033336000B3E565003B
:1027F400930700006FF05FFB9307140093F7E77FE4
:10280400639C07123363A800B365C700631A040608
:10281400631203026392052A9384E9FF93B41400BC
:10282400130800009305000093080000130400003F
:102834006F00404563880518B305C540B338B5003B
:10284400B307E840B3871741B7088000B3F817010E
:10285400638E08003305A640330707413336A600CC
:102864003308C740938406006F00C01533E7F500B2
:10287400E30407FA13880700138505006F0080142A
:10288400130EF07F6314C405631E0300639E88085F
:102894006398050493040000370840001304000102
:1028A4006F00403EB7064000B376D8006388064602
:1028B40063908808E3840590B7074000B377F70076
:1028C400E39C07BA130400016F00004713040000DF
:1028D400639EC80363900502E312038E6FF09FFBAF
:1028E400370540003375A700E31A05E0130400011F
:1028F4006F000002370E4000337EC70163060E00EE
:10290400E31C03B66FF09FDF130400016316034258
:1029140093840600E39E05B8930400003708400042
:102924009308F07F6FF09FF7130400006FF05FFED1
:10293400130400006F004040B307C540B335F500F1
:102944003309E8403309B940B7058000B375B900CD
:10295400138A07006386050C330AA640330907412E
:10296400333646013309C940938406006300090CD9
:1029740013050900EF00D003930785FF1307000236
:102984003307F7403319F9003357EA003367270157
:102994003319FA0063CA870EB38787401388170078
:1029A40093070002B38707413315F700B3560901B3
:1029B400B317F9003365D500B337F0003365F5007C
:1029C40033580701B3670501E38C07E49357F50116
:1029D400131718003307F7009317150013F6770041
:1029E4009376750063060618130620006382C912E5
:1029F400130630006388C90C639E091413F6F700AC
:102A04009305400093B7C7FF6312B60EB7070001E2
:102A14003377F7006306070E930710006F00801FDB
:102A2400B3E72701E39407F46FF01FDF13050A00EF
:102A3400EF000078930785019306F001E3D0F6F4E4
:102A4400130785FF3317EA0063C08704B387874001
:102A540013881700E3D606F5938717FE9306000242
:102A6400B357F700130500006308D80013050004EA
:102A7400330505413315A7003335A0003365F50050
:102A8400130800006FF01FF4B308F440B70780FF89
:102A94009387F7FF3377F700130609006FF09FA6BB
:102AA40093880500938406006FF0DFA513080700E0
:102AB400130506006FF01FF1130807001305060045
:102AC4006FF05FDA63820402B70700013377F7001F
:102AD400631007146390061693870400930800009C
:102AE40093E727006F00400A93B787FF93C7170047
:102AF400B387E70037070001B3F7E700E39E07F069
:102B04009308000063900614930710006FF05FFDB4
:102B1400639C0400B70700013377F700E31E07EE58
:102B2400930800006FF05FFE93B787FF93C7170009
:102B3400B387E70037070001B3F7E700639A070C90
:102B4400E38C06F89386040093870400930800003E
:102B54006FF04FE3B70700013377F700E31E07EA8E
:102B6400E38006FC93061000930800006F00C00D7C
:102B7400B70700013377F7006312070A6394060A64
:102B84009308000093070000370780003377E800BC
:102B940063040716938818001307F07F6386E80C14
:102BA400370780FF1307F7FF3377E8009315D70142
:102BB40013553500B3E5A5001357370013840700F8
:102BC40093974801B706F07F1317C7001357C70040
:102BD400B3F7D700B3E7E7009394F40133E7970022
:102BE4001385050093050700630404007320140093
:102BF4008320C101032481018324410103290101AC
:102C04008329C100032A81001301010267800000A7
:102C140093870400930800006FF08FD5930700009A
:102C24006FF05FFF93061000930800009307000005
:102C34006FF08FD4938604009387040093080000F8
:102C44006FF0DF8E93061000930710006FF01F8E55
:102C540063880400E38A06F2938406006FF05FE859
:102C6400130785006FF05F8E9305000063880900E9
:102C7400130730006392E9046396040413E45700D5
:102C8400138805009317D80193D53500B3E5B70031
:102C94009307F07F13573800E394F8F2B3E5E500A7
:102CA40013070000E38E05F03707080093050000C2
:102CB400930400006FF0DFF0130720006394E90031
:102CC400E39E04FA9305F0FF9308E07F6FF01FFB87
:102CD4009308F07F6FF01F8E1308000013040000A8
:102CE4006FF00FFC93840600130800006FF04FFB95
:102CF400938406006FF00FE3930505001384070027
:102D04006FF05FF8639688FC631C03F613070800F2
:102D140013060500930700016FF0CFC4E39488BA4B
:102D240093070001638C05C8B7074000B377F70029
:102D340013040001639007F6639E05F46FF08FF8A7
:102D4400130101FFD30705E023261100232481008A
:102D540023229100232021017327200093D477019B
:102D640093F4F40F1394970013D9F7019387140085
:102D740093F7E70F13549400638A07041385043808
:102D840093573400930400001314D4019397C7009D
:102D940093D7C700131545013365F5009317F9015F
:102DA4003367F500930507001305040063840400EA
:102DB400736018008320C100032481008324410030
:102DC40003290100130101016780000063940404D6
:102DD4006306040613050400EF00803D9307A0007A
:102DE40063C2A7029307B000B387A7401307550136
:102DF400B357F4003314E400130790383305A740A5
:102E04006FF0DFF8930755FFB317F40013040000C5
:102E14006FF09FFE630A0402B7044000B3349400C9
:102E24009357340037070800939444001314D401D3
:102E3400B3E7E7001305F07F6FF05FF59307000039
:102E4400130500006FF09FF4930700009304000043
:102E54006FF05FFE732820009397C50093D8450157
:102E640093D7970093F8F87F1356D5013366F6008D
:102E74009387180093F7E77F93D5F50193163500F0
:102E840063800712138708C89307E00F63DEE70225
:102E9400630C082E93073000631CF800638605302A
:102EA4009307F0FF1307E00F930650006F004023D1
:102EB40093072000E316F8FEE38405FE370780FF3E
:102EC400930650006F00C02A6344E00A930790FE03
:102ED4006340F70EB70780001305E0013366F60080
:102EE4003305E5409307F00163CCA704938828C811
:102EF40033D5A600B3961601B336D00033161601A7
:102F0400B3E6C600B367D50013971700937677002E
:102F14006394060A93F67700130700001306100063
:102F2400639206141306F00F93D73700631CC70C83
:102F3400638A070CB7074000930500006F00800CFC
:102F44009307E0FFB387E74013030002B357F6008B
:102F54001307000063066500138728CA3317E600C9
:102F64003367D7003337E000B3E7E7006FF0DFF9EA
:102F74009317650013163600B337F00093D6D601C5
:102F8400B3E7C700B3E7D70093F677001306000052
:102F9400639A060C93D73700930600006F008006EF
:102FA400B366D600639C08021397F501638E060688
:102FB40093071000130720001306200093F67700F0
:102FC4006308C80C130630006306C80863020806C9
:102FD40013070000130610006F008008638E061AA2
:102FE4009307F07F930600006398F8001356660178
:102FF4001346160093164600930500001307F00FBE
:10300400B7074000131777013706807F939797001F
:103014003377C70093D797003367F7009395F5018B
:103024003367B70063960614530507F06780000002
:103034001375F7001306400013074700631EC50409
:103044001307000013061000639206029306300073
:103054006FF05FED6380050413860500130700001D
:10306400E38606FE930620006306D80A9306300022
:103074006302D806631A080A93F6F70013054000A2
:103084006390A60493061000E30E06E86FF01FFC9D
:10309400E38005F413078700370600083375C7007B
:1030A4001336150013070000E39E06FA930630005A
:1030B400E30A05E693D73700930610006FF09FF4F8
:1030C4009387470093061000630C0600936626005E
:1030D4006F000001638C050293860500631C0604DF
:1030E4003706000433F6C700E30E06E213071700A1
:1030F4001306F00F6304C7043706801F93D7370005
:103104001306F6FFB3F7C7006FF0DFEF938787006E
:103114006FF05FFBE38805FA9387870093860500C9
:10312400E30006FC6FF09FFA93061000E31006FA22
:103134006FF01FFB138605006FF05FF993E65600EE
:10314400630C080293073000631CF80063860502D1
:10315400B707807F1397F5019387F7FF6F0040024D
:1031640093072000E316F8FE6398050003A741CAFD
:1031740073A016006FF05FEB1397F501B707807F1C
:103184003367F7006FF0DFFE1397F501B707807F11
:103194003367F7006FF0DFD29395F5013707807F2F
:1031A40033E7E5006FF05FE83707807F6FF05FD1AA
:1031B400B7070100637AF5029337051093C7170028
:1031C400939737003737008093060002B386F640A2
:1031D4003355F5009307C73CB387A70003C5070021
:1031E4003385A6406780000037070001930700017C
:1031F400E36AE5FC930780016FF0DFFC03A501D3CC
:1032040067800000130101FF23248100B757008069
:103214003754008023202101938707A9130704A9A9
:1032240023261100232291003389E7406382E702B9
:1032340013592940130404A99304000083270400AC
:103244009384140013044400E7800700E3E824FF98
:1032540037540080B7570080938747A9130704A900
:103264003389E740135929406380E702130404A912
:10327400930400008327040093841400130444007F
:10328400E7800700E3E824FF8320C10003248100D2
:103294008324410003290100130101016780000018
:1032A4001303F00013070500637EC3029377F7004E
:1032B4006390070A63920508937606FF1376F60077
:1032C400B386E6002320B7002322B7002324B700E7
:1032D4002326B70013070701E366D7FE631406002D
:1032E40067800000B306C34093962600970200004F
:1032F400B38656006780C6002307B700A306B7004D
:103304002306B700A305B7002305B700A304B7003D
:103314002304B700A303B7002303B700A302B70035
:103324002302B700A301B7002301B700A300B7002D
:103334002300B7006780000093F5F50F939685008E
:10334400B3E5D50093960501B3E5D5006FF0DFF63C
:103354009396270097020000B386560093820000DC
:10336400E78006FA93800200938707FF3307F7404C
:0C3374003306F600E378C3F66FF0DFF3D9
:10338000F01800800019008018190080381900809A
:10339000581900807819008098190080B0190080B1
:1033A000D0190080F0190080081A0080281A0080C7
:1033B000481A0080681A0080801A0080A01A0080D5
:1033C000000000000000F03F0000000000010202C9
:1033D00003030303040404040404040405050505AD
:1033E0000505050505050505050505050606060689
:1033F000060606060606060606060606060606066D
:103400000606060606060606060606060707070758
:10341000070707070707070707070707070707073C
:10342000070707070707070707070707070707072C
:10343000070707070707070707070707070707071C
:103440000707070707070707070707070808080808
:1034500008080808080808080808080808080808EC
:1034600008080808080808080808080808080808DC
:1034700008080808080808080808080808080808CC
:1034800008080808080808080808080808080808BC
:1034900008080808080808080808080808080808AC
:1034A000080808080808080808080808080808089C
:1034B000080808080808080808080808080808088C
:0C34C000080808080808080808080808A0
:1044CC001000000000000000037A5200017C010182
:1044DC001B0D0200200000001800000038BCFFFF7C
:1044EC003000000000440E10448801440C08005CAD
:1044FC00C80C0210440E0000200000003C0000001C
:10450C0044BCFFFF6000000000440E1044880144CE
:10451C000C0800024CC80C0210440E0020000000D5
:10452C006000000080BCFFFF4400000000440E202F
:10453C00448801440C080070C80C0220440E000092
:10454C002000000084000000A0BCFFFF5C00000005
:10455C0000440E20448801440C08000248C80C0298
:10456C0020440E0024000000A8000000D8BCFFFF6F
:10457C005400000000440E204881018802440C08BD
:10458C000078C144C80C0220440E00002400000036
:10459C00D000000004BDFFFF5C00000000440E30A2
:1045AC004881018802440C08000240C144C80C0236
:1045BC0030440E0024000000F800000038BDFFFF5E
:1045CC006400000000440E304881018802440C084D
:1045DC00000248C144C80C0230440E002400000004
:1045EC002001000074BDFFFF6C00000000440E3081
:1045FC004881018802440C08000250C144C80C02D6
:10460C0030440E002000000048010000B8BDFFFF40
:10461C007000000000440E20448801440C08000285
:10462C005CC80C0220440E00240000006C01000049
:10463C0004BEFFFF5800000000440E204881018892
:10464C0002440C0800023CC144C80C0220440E0079
:10465C00240000009401000034BEFFFF6000000045
:10466C0000440E304881018802440C08000244C109
:10467C0044C80C0230440E0024000000BC010000B1
:10468C006CBEFFFF6800000000440E3048810188BA
:10469C0002440C0800024CC144C80C0230440E0009
:1046AC0024000000E4010000ACBEFFFF700000001D
:1046BC0000440E304881018802440C08000254C1A9
:1046CC0044C80C0230440E00200000000C02000014
:1046DC00F4BEFFFF9000000000440E3044880144FB
:1046EC000C0800027CC80C0230440E0020000000B4
:1046FC003002000060BFFFFF2000000000440E20CD
:10470C00448801440C08004CC80C0220440E0000E4
:10471C0020000000540200005CBFFFFF54000000AA
:10472C0000440E30448801440C08000240C80C02BE
:10473C0030440E0020000000780200008CBFFFFF08
:10474C004000000000440E20448801440C08006C1A
:10475C00C80C0220440E0000240000009C02000043
:10476C00A8BFFFFFE000000000440E304881018824
:10477C0002440C080002C4C144C80C0230440E00B0
:10478C0020000000C402000060C0FFFF40000000D9
:10479C0000440E20448801440C08006CC80C022014
:1047AC00440E000024000000E80200007CC0FFFF63
:1047BC00E800000000440E10448801440C0800037B
:1047CC00D400C80C0210440E0000000024000000AD
:1047DC00100300003CC1FFFF7000000000440E30CD
:1047EC004881018802440C08000254C144C80C02E0
:1047FC0030440E00280000003803000084C1FFFF85
:10480C001001000000440E304881018802440C085D
:10481C000003F400C144C80C0230440E0000000038
:10482C00240000006403000068C2FFFF8800000041
:10483C0000440E304881018802440C0800026CC10F
:10484C0044C80C0230440E00240000008C0300000D
:10485C00C8C2FFFFA400000000440E30488101884C
:10486C0002440C08000288C144C80C0230440E00FB
:10487C0024000000B403000044C3FFFF88000000C4
:10488C0000440E304881018802440C0800026CC1BF
:10489C0044C80C0230440E0024000000DC0300006D
:1048AC00A4C3FFFFA400000000440E30488101881F
:1048BC0002440C08000288C144C80C0230440E00AB
:1048CC00280000000404000020C4FFFF9C0200002C
:1048DC0000440E604881018802440C0800038002E9
:1048EC00C144C80C0260440E00000000240000000B
:1048FC003004000090C6FFFF8800000000440E400A
:10490C004881018802440C0800026CC144C80C02A6
:10491C0040440E002400000058040000F0C6FFFFC5
:10492C00A000000000440E304881018802440C08AD
:10493C00000284C144C80C0230440E002800000060
:10494C008004000068C7FFFF4C01000000440E30DB
:10495C004881018802440C0800033001C144C80C92
:10496C000230440E0000000024000000AC040000E3
:10497C0088C8FFFF7400000000440E304881018895
:10498C0002440C08000258C144C80C0230440E000A
:10499C0024000000D4040000D4C8FFFFB0000000C5
:1049AC0000440E204881018802440C08000294C186
:1049BC0044C80C0220440E0024000000FC0400003B
:1049CC005CC9FFFFCC00000000440E304881018818
:1049DC0002440C080002B0C144C80C0230440E0062
:1049EC00280000002405000000CAFFFF540100004D
:1049FC0000440E304881018802440C080003380141
:104A0C00C144C80C0230440E000000002800000015
:104A1C005005000028CBFFFF6C02000000440E5034
:104A2C004881018802440C0800035002C144C80CA0
:104A3C000250440E00000000240000007C05000021
:104A4C0068CDFFFFE400000000440E30488101886F
:104A5C0002440C080002C8C144C80C0230440E00C9
:104A6C001C000000A405000024CEFFFF340200004F
:104A7C0000440E304881018802440C0800000000FC
:044A8C000000000026
:044A900000010080A1
:044A9400BC000080E2
:02000004C0003A
:1000000000000000EC0200C0540300C0BC0300C0AC
:1000100000000000000000000000000000000000E0
:1000200000000000000000000000000000000000D0
:1000300000000000000000000000000000000000C0
:1000400000000000000000000000000000000000B0
:1000500000000000000000000000000000000000A0
:100060000000000000000000000000000000000090
:100070000000000000000000000000000000000080
:100080000000000000000000000000000000000070
:100090000000000000000000000000000000000060
:1000A000000000000000000001000000000000004F
:1000B0000E33CDAB34126DE6ECDE05000B00000014
:1000C0000000000000000000000000000000000030
:1000D0000000000000000000000000000000000020
:1000E0000000000000000000000000000000000010
:1000F0000000000000000000000000000000000000
:100428000000807F8071B142B5F1CFC2000080FF2B
:100438003BAAB83F8071313FD1F717374CBB3133F6
:100448000EEADDB555B38A38610B36BBABAA2A3E36
:10045800CAF249710000803F000000400000800D92
:10046800000000CC0000004CABAAAA3E0000003FF0
:100478004FD01C3E298E633ECDCCCC3E9788173E8C
:1004880025333A3E2549923EABAA2A3F0000001088
:1004980000000070000080BF0000C07FFFFF7F7F6A
:1004A80000000030000000C0040000C0080000C0C8
:1004B800000100C0200000C0300000C0340000C0AF
:1004C800500000C0400000C0600000C0640000C0D0
:1004D80004000000080000000C00000010000000EC
:1004E80014000000180000001C000000200000009C
:1004F80024000000280000002C000000300000004C
:1005080034000000D1F71737D1F717B78071313FA2
:10051800807131BF0000003F000000BF000000C034
:0C0528000000000000000040000000C0C7
:040000058000007403
:00000001FF
