:0200000480007A
:10007400130101FF23229100B714000023248100FF
:10008400938404942326110013848131138504007E
:1000940023269400EF7011552324A4006310050255
:1000A40023260400232204008320C10003248100AA
:1000B4008324410013010101678000002322A4006E
:1000C40023209500232205006FF01FFE37B5008022
:1000D400138641269385C12B1305C5BF6F50115D4F
:1000E400930700006388070037050280130545C4A1
:1000F4006F60D20367800000130101FF1305400005
:1001040023261100EFA0C07EB7E702809387474FF4
:1001140037B60080B7E502802320F500130606BB3E
:1001240093858548EF40C068130101FF1305400023
:1001340023261100EFA0C07BB7D70280938787CE18
:1001440037560080B7D502802320F500130606DB5E
:10015400938545CDEF40C065130101FF13054000B1
:1001640023261100EFA0C078B7D70280938707D465
:1001740037560080B7D502802320F500130686DFAA
:100184009385C5D2EF40C062130101FF13054000FF
:1001940023261100EFA0C075B7D702809387C7D775
:1001A40037560080B7D502802320F500130606E4F5
:1001B400938585D6EF40C05F130101FF130540000E
:1001C40023261100EFA0C072B7D702809387C7DB44
:1001D40037560080B7D502802320F500130686E841
:1001E400938585DAEF40C05C130101FE2326A1004C
:1001F40013058000232C8100232E1100232A910053
:10020400EFA0006F8325C10013040500EFB0803B0D
:1002140037B60080B7E50280130686F99385855CBE
:1002240013050400EF40C0589304050013050400AF
:10023400EFA0807113850400EF40411C130101FEFF
:100244002326A10013058000232C8100232E1100F6
:10025400232A9100EFA0C0698325C100130405007F
:10026400EFB0C03B37B60080B7E50280130606FD49
:100274009385855E13050400EF40805393040500C5
:1002840013050400EFA0406C13850400EF40011730
:10029400130101FE2326A10013058000232C8100F5
:1002A400232E1100232A9100EFA080648325C1002E
:1002B40013040500EFB0803937B60080B7E502803B
:1002C400130606FE9385C56013050400EF40404EF7
:1002D4009304050013050400EFA0006713850400D0
:1002E400EF40C111130101FE2326A1001305800074
:1002F400232C8100232E1100232A9100EFA0405FBC
:100304008325C10013040500EFB0403737B60080E1
:10031400B7E50280130606FF9385C5621305040042
:10032400EF4000499304050013050400EFA0C061E9
:1003340013850400EF40810C130101FE2326A10064
:1003440013058000232C8100232E1100232A910001
:10035400EFA0005A8325C10013040500EFB0003557
:1003640037B60080B7E50280130606009385C5649E
:1003740013050400EF40C043930405001305040073
:10038400EFA0805C13850400EF404107130101FED8
:100394002326A10013058000232C8100232E1100A5
:1003A400232A9100EFA0C0548325C1001304050043
:1003B400EFB0C03237B60080B7E5028013060601FD
:1003C4009385C56613050400EF40803E9304050041
:1003D40013050400EFA0405713850400EF40010209
:1003E400130101FE2326A10013058000232C8100A4
:1003F400232E1100232A9100EFA0804F8325C100F2
:1004040013040500EFB0003337B60080B7E502806F
:10041400130686049385856813050400EF4040396C
:100424009304050013050400EFA000521385040093
:10043400EF30D17C130101FE2326A10013058000B7
:10044400232C8100232E1100232A9100EFA0404A7F
:100454008325C10013040500EFB0C03037B6008017
:10046400B7E50280130686059385856A13050400A3
:10047400EF4000349304050013050400EFA0C04CC2
:1004840013850400EF309177130101FE2326A100A8
:1004940013058000232C8100232E1100232A9100B0
:1004A400EFA000458325C10013040500EFB0802EA2
:1004B40037B60080B7E50280130686069385856CFF
:1004C40013050400EF40C02E930405001305040037
:1004D400EFA0804713850400EF305172130101FF30
:1004E4009305000023248100232611001304050032
:1004F400EFF0415D03A501268327C503638407004C
:10050400E780070013050400EFC0023A970100409A
:100514009381016F138581281386813A3306A6409F
:1005240093050000EF8081441765020013054540E0
:100534006308050017F501001305C570EF60023F5D
:10054400EF70015A032501009305410013060000D2
:10055400EF10805A6FF09FF8130101FF23248100EC
:1005640083C7C12E2326110063920702B767018057
:10057400938787B16388070037150380130545AC5B
:10058400EF504159930710002386F12E8320C100B8
:10059400032481001301010167800000B767018013
:1005A4009387479B638A0700371503809385012F40
:1005B400130545AC6F50C13F67800000130101FF74
:1005C4002326810013040101130000000324C10049
:1005D4001301010167800000130101FF232681003C
:1005E40013040101130000000324C10013010101DD
:1005F40067800000130101FE232E81001304010211
:100604002326A4FE2324B4FE130000000324C10106
:100614001301010267800000130101FB232611046A
:1006240023248104130401052326A4FC2324B4FCFD
:100634002322C4FC2320D4FC232EE4FA232CF4FA32
:10064400232A04FB832784FC232AF4FC8327C4FC89
:10065400232CF4FC832744FC232EF4FC832704FC82
:100664002320F4FE8327C4FB2322F4FE832784FB88
:100674002324F4FE832744FB2326F4FE832544FD30
:10068400032684FD032704FE832744FE832684FE79
:100694000325C4FE9308050013880600832644FC42
:1006A40037D502801305058BEF800145930744FD80
:1006B4009385070013858130EF1050041300000068
:1006C4008320C10403248104130101056780000011
:1006D400130101FE232E1100232C810013040102B7
:1006E4002326A4FE2324B4FE2322C4FE1308000000
:1006F400930700001307000093060000032644FE3E
:10070400832584FE0325C4FEEFF01FF113000000CF
:100714008320C101032481011301010267800000C9
:10072400130101FE232E1100232C81001304010266
:100734002326A4FE2324B4FE2322C4FE2320D4FEB5
:10074400130800009307000013070000832604FE2B
:10075400032644FE832584FE0325C4FEEFF0DFEB6D
:10076400130000008320C10103248101130101024D
:1007740067800000130101FD232611022324810256
:10078400130401032326A4FE2324B4FE2322C4FE5F
:100794002320D4FE232EE4FC13080000930700005A
:1007A4000327C4FD832604FE032644FE832584FE1A
:1007B4000325C4FEEFF05FE6130000008320C102AE
:1007C400032481021301010367800000130101FD6A
:1007D4002326110223248102130401032326A4FEE9
:1007E4002324B4FE2322C4FE2320D4FE232EE4FCBF
:1007F400232CF4FC13080000832784FD0327C4FD85
:10080400832604FE032644FE832584FE0325C4FEBA
:10081400EFF09FE0130000008320C1020324810253
:100824001301010367800000130101FD2326110257
:10083400232481021304010313858130EF10C07354
:100844009307050003A8070003A5470083A58700B5
:1008540003A6C70083A6070103A7470183A787014F
:10086400232A04FD232CA4FC232EB4FC2320C4FE41
:100874002322D4FE2324E4FE2326F4FE832544FD10
:10088400032684FD8326C4FD032704FE832744FE38
:10089400032584FE0328C4FE9308080013080500FA
:1008A40037D502801305058FEF800125138581302C
:1008B400EF100070130000008320C10203248102A2
:1008C4001301010367800000130101FC232E1102B0
:1008D400232C8102130401042326A4FC2324B4FC46
:1008E4002322C4FC13858130EF10C07393070500E5
:1008F400638A07008327C4FC1307F0FF23A0E700E3
:100904006F00000713858130EF100067930705001F
:1009140003A8070003A5470083A5870003A6C70013
:1009240083A6070103A7470183A78701232A04FDA0
:10093400232CA4FC232EB4FC2320C4FE2322D4FEA7
:100944002324E4FE2326F4FE032784FD8327C4FC2A
:1009540023A0E700032744FD832784FC23A0E700AA
:100964000327C4FD832744FC23A0E700EFF0DFEB5B
:100974008320C10303248103130101046780000061
:10098400130101FC232E1102232C81021304010400
:100994002326A4FC2324B4FC2322C4FC2320D4FC5B
:1009A40013858130EF10006893070500638A070000
:1009B4008327C4FC1307F0FF23A0E7006F00C007E0
:1009C40013858130EF10405B9307050003A80700EF
:1009D40003A5470083A5870003A6C70083A60701D4
:1009E40003A7470183A78701232A04FD232CA4FC22
:1009F400232EB4FC2320C4FE2322D4FE2324E4FEAD
:100A04002326F4FE032784FD8327C4FC23A0E700E8
:100A1400032744FD832784FC23A0E7000327C4FDA8
:100A2400832744FC23A0E700032704FE832704FC58
:100A340023A0E700EFF05FDF8320C10303248103D9
:100A44001301010467800000130101FB2326110434
:100A540023248104130401052326A4FC2324B4FCC9
:100A64002322C4FC2320D4FC232EE4FA13858130F2
:100A7400EF10405B93070500638A07008327C4FCDB
:100A84001307F0FF23A0E7006F008008138581306F
:100A9400EF10804E9307050003A8070003A5470045
:100AA40083A5870003A6C70083A6070103A7470100
:100AB40083A78701232A04FD232CA4FC232EB4FC42
:100AC4002320C4FE2322D4FE2324E4FE2326F4FEA2
:100AD400032784FD8327C4FC23A0E700032744FDE8
:100AE400832784FC23A0E7000327C4FD832744FC59
:100AF40023A0E700032704FE832704FC23A0E700C8
:100B0400032744FE8327C4FB23A0E700EFF0DFD1D3
:100B14008320C104032481041301010567800000BC
:100B2400130101FB2326110423248104130401056A
:100B34002326A4FC2324B4FC2322C4FC2320D4FCB9
:100B4400232EE4FA232CF4FA13858130EF10804D20
:100B540093070500638A07008327C4FC1307F0FF8B
:100B640023A0E7006F00400913858130EF10C040D7
:100B74009307050003A8070003A5470083A5870082
:100B840003A6C70083A6070103A7470183A787011C
:100B9400232A04FD232CA4FC232EB4FC2320C4FE0E
:100BA4002322D4FE2324E4FE2326F4FE032784FD1B
:100BB4008327C4FC23A0E700032744FD832784FC88
:100BC40023A0E7000327C4FD832744FC23A0E700F8
:100BD400032704FE832704FC23A0E700032744FE25
:100BE4008327C4FB23A0E700032784FE832784FB19
:100BF40023A0E700EFF05FC38320C1040324810432
:100C04001301010567800000130101FB2326110471
:100C140023248104130401052326A4FC2324B4FC07
:100C24002322C4FC2320D4FC232EE4FA232CF4FA3C
:100C3400232A04FB13858130EF10C03E930705007F
:100C4400638A07008327C4FC1307F0FF23A0E7008F
:100C54006F00000A13858130EF10003293070500FE
:100C640003A8070003A5470083A5870003A6C700C0
:100C740083A6070103A7470183A78701232A04FD4D
:100C8400232CA4FC232EB4FC2320C4FE2322D4FE54
:100C94002324E4FE2326F4FE032784FD8327C4FCD7
:100CA40023A0E700032744FD832784FC23A0E70057
:100CB4000327C4FD832744FC23A0E700032704FE85
:100CC400832704FC23A0E700032744FE8327C4FBF7
:100CD40023A0E700032784FE832784FB23A0E700E7
:100CE4000327C4FE832744FB23A0E700EFF0DFB310
:100CF4008320C104032481041301010567800000DB
:100D0400130101FB23261104232481041304010588
:100D1400B7D7028093850793B7D70280138547938B
:100D2400EF50912993070500232AF4FC832744FDFF
:100D340063980700B7D7028013854794EF70D15B9F
:100D4400930704FD832644FD130610009305400019
:100D540013850700EF50D165032704FDB7E70000B2
:100D64009387D7EA6308F700B7D70280138587957E
:100D7400EF709158832644FD13061000930540003C
:100D840013858128EF50D162832644FD1306100099
:100D9400930540001385C128EF50916103A7812872
:100DA40083A7C1281386070093050700B7D70280DD
:100DB40013858797EF7051549307C4FC832644FD31
:100DC400130610009305400013850700EF50515E91
:100DD400930784FC832644FD13061000930540000A
:100DE40013850700EF50D15C930744FC832644FD30
:100DF400130610009305400013850700EF50515B64
:100E0400930704FC832644FD130610009305400059
:100E140013850700EF50D1599307C4FB832644FD83
:100E2400130610009305400013850700EF50515836
:100E3400930784FB832644FD1306100093054000AA
:100E440013850700EF50D156930744FB832644FDD6
:100E5400130610009305400013850700EF50515509
:100E64008325C4FC032684FC832644FC032704FC5A
:100E74008327C4FB032584FB032844FB9308080051
:100E84001308050037D502801305859AEF70D14603
:100E9400832644FD130610009305400013850129A1
:100EA400EF50115187A701295385F720EF10812FA7
:100EB40013070500938705001306070093860700B0
:100EC400B7D70280138507A5EF70114383A7812844
:100ED400938717009305400013850700EF401160C6
:100EE400930705001387070023AAE12883A7C128D5
:100EF4009305400013850700EF40515E93070500FA
:100F04001387070023A0E12A83A78128938717006A
:100F14009305400013850700EF40515C93070500DB
:100F24001387070023A2E12A83A7C1289305400061
:100F340013850700EF40915A9307050013870700B4
:100F440023A4E12A83A7C128930540001385070041
:100F5400EF40D158930705001387070023A6E12A21
:100F640083A7C128939717009305000213850700F0
:100F7400EF40D156930705001387070023A8E12A01
:100F840083A7C128939717009305000213850700D0
:100F9400EF40D154930705001387070023AAE12AE1
:100FA40083A741296386070283A7012A6382070274
:100FB40083A7412A638E070083A7812A638A0700D7
:100FC40083A7C12A6386070083A7012B63980700C0
:100FD400B7D70280138547A6EF701132232604FE8B
:100FE4006F00400303A741298327C4FE939727007A
:100FF400B307F700832644FD130610009305400051
:1010040013850700EF50D13A8327C4FE9387170056
:101014002326F4FE83A78128938717000327C4FEA1
:10102400E362F7FC232404FE6F00400303A7012AB4
:10103400832784FE93972700B307F700832644FD94
:10104400130610009305400013850700EF50513636
:10105400832784FE938717002324F4FE83A7C128E3
:10106400032784FEE364F7FC232204FE6F0040039D
:1010740003A7412A832744FE93972700B307F70069
:10108400832644FD130610009305400013850700D2
:10109400EF501132832744FE938717002322F4FE76
:1010A40083A7812893871700032744FEE362F7FC94
:1010B400232004FE6F00400303A7812A832704FE34
:1010C40093972700B307F700832644FD1306100007
:1010D4009305400013850700EF50912D832704FEEC
:1010E400938717002320F4FE83A7C128032704FE57
:1010F400E364F7FC232E04FC6F00400303A7C12A1A
:101104008327C4FD93972700B307F700832644FD84
:10111400130610009305400013850700EF50512972
:101124008327C4FD93871700232EF4FC83A7C128CB
:101134000327C4FDE364F7FC232C04FC6F00400385
:1011440003A7012B832784FD93975700B307F70068
:10115400832644FD1306100093050002138507003F
:10116400EF501125832784FD93871700232CF4FC6B
:1011740083A7C12893971700032784FDE362F7FC34
:10118400032544FDEF405165130000008320C10492
:10119400032481041301010567800000130101FC8D
:1011A400232E1102232C8102232A910223282103B6
:1011B400232631032324410313040104B7D70280F7
:1011C400138547A9EF705113232E04FC6F004003CD
:1011D40003A741298327C4FD93972700B307F7008A
:1011E40083A7070093850700B7D70280138547AA12
:1011F400EF7091108327C4FD93871700232EF4FC0E
:1012040083A78128938717000327C4FDE362F7FCB3
:101214001305A000EF709113B7D70280138587AA36
:10122400EF70910D232C04FC6F00400303A7012AE7
:10123400832784FD93972700B307F70083A707004C
:1012440093850700B7D70280138547AAEF70D10AA8
:10125400832784FD93871700232CF4FC83A7C128DC
:10126400032784FDE364F7FC1305A000EF70110E5F
:10127400B7D70280138547ABEF701108232A04FC0B
:101284006F00400303A7412A832744FD9397270057
:10129400B307F70083A7070093850700B7D7028039
:1012A400138547AAEF705105832744FD93871700E0
:1012B400232AF4FC83A7812893871700032744FD7E
:1012C400E362F7FC1305A000EF705108B7D7028062
:1012D4001385C7ACEF705102232804FC6F00400350
:1012E40003A7812A832704FD93972700B307F700F8
:1012F40083A7070093850700B7D70280138547AA01
:10130400EF70817F832704FD938717002328F4FC63
:1013140083A7C128032704FDE364F7FC1305A00099
:10132400EF70D102B7D70280138507AEEF70C17C8E
:10133400232604FC6F00400303A7C12A8327C4FCAF
:1013440093972700B307F70083A707009385070047
:10135400B7D70280138547AAEF70017A8327C4FCAC
:10136400938717002326F4FC83A7C1280327C4FC12
:10137400E364F7FC1305A000EF70417D232404FC13
:101384006F00800A03A7012B832784FC93975700DF
:10139400B307F70083A4070003A7012B832784FC6A
:1013A40093975700B307F70003AA470003A7012B3D
:1013B400832784FC93975700B307F70087A7870018
:1013C4005385F720EF00115E13090500938905008A
:1013D40003A7012B832784FC93975700B307F700D7
:1013E40087A7C7005385F720EF00D15B13070500DB
:1013F4009387050013080700938807001307090063
:101404009387090093060A0013860400832584FC4D
:1014140037D50280130545AFEF70016E832784FC36
:10142400938717002324F4FC83A7C12893971700FC
:10143400032784FCE368F7F41305A000EF7001713F
:10144400232204FC6F00800A03A7412B832744FC5A
:1014540093975700B307F70083A4070003A7412B12
:10146400832744FC93975700B307F70003AA470068
:1014740003A7412B832744FC93975700B307F70036
:1014840087A787005385F720EF00D1511309050082
:101494009389050003A7412B832744FC93975700A6
:1014A400B307F70087A7C7005385F720EF00914FD4
:1014B40013070500938705001308070093880700A6
:1014C400130709009387090093060A001386040092
:1014D400832544FC37D50280130585B1EF70C161C3
:1014E400832744FC938717002322F4FC83A7C12895
:1014F40093971700032744FCE368F7F41305A0004F
:10150400EF70C164130000008320C103032481032E
:1015140083244103032901038329C102032A81028D
:101524001301010467800000130101FD2326110249
:101534002324810213040103232EA4FC232604FE86
:101544006F0000030327C4FD8327C4FEB307F7001D
:10155400938717000326C4FE938507001305100024
:10156400EFF00F978327C4FE938717002326F4FE1A
:1015740083A7C128939717000327C4FEE364F7FCED
:1015840013000000130000008320C1020324810221
:101594001301010367800000130101FD23261102DA
:1015A4002324810213040103232EA4FC232CB4FC62
:1015B40003A7012B832784FD93975700B307F700F4
:1015C4009386870003A7012B832784FD93975700F5
:1015D400B307F70093870701938507001385060077
:1015E400EF00C07A2726A4FE87A701290727C4FE97
:1015F400D397E7A0639407006F0040050725C4FE56
:10160400EF00806F2324A4FE03A7012B832784FD0E
:1016140093975700B307F7009387070183A6070042
:1016240003A7012B832784FD93975700B307F70083
:101634009387470183A7070013870700032684FDC8
:10164400832584FE13053000EFF0CF9213000000D1
:101654008320C10203248102130101036780000077
:10166400130101FB2326110423248104130401051F
:10167400232EA4FA232CB4FA232AC4FA2328D4FA56
:10168400930744FB87A707002728F4FC930704FB70
:1016940087A70700272AF4FC03A7012B832784FBD1
:1016A40093975700B307F70007A70701872704FD9F
:1016B400D327F7A0638E072203A7012B832784FB7C
:1016C40093975700B307F70007A74701872744FDFF
:1016D400D327F7A0638E072003A7012B832784FB5E
:1016E40093975700B307F70087A787002724F4FCD4
:1016F40003A7012B832784FB93975700B307F700B5
:10170400872704FD27A4F70003A7012B832784FB65
:1017140093975700B307F70013878700930784FC58
:1017240083A707009385070013050700EFE09FECEC
:1017340003A7012B832784FB93975700B307F70074
:1017440087A7C7002726F4FC03A7012B832784FB64
:1017540093975700B307F700872744FD27A6F700A0
:1017640003A7012B832784FB93975700B307F70044
:101774001387C700930784FC9387470083A7070058
:101784009385070013050700EFE0DFE603A7012BAD
:10179400832784FB93975700B307F70007A78700B5
:1017A400872784FCD377F7082720F4FC03A7012BB1
:1017B400832784FB93975700B307F70007A7C70055
:1017C4008727C4FCD377F7082722F4FC03A7012B4F
:1017D400832784FB93975700B307F70083A7470039
:1017E4002320F4FE03A74129832704FE93972700AF
:1017F400B307F70083A707002326F4FE03A74129B4
:10180400832704FE9387170093972700B307F700F5
:1018140083A70700232EF4FC03A7412A832704FE91
:1018240093972700B307F70083A707002324F4FE48
:1018340003A7412A832704FE938717009397270061
:10184400B307F70083A70700232CF4FC232204FE2C
:101854006F0040080327C4FE8327C4FD6370F702AA
:101864008327C4FE939717002322F4FE8327C4FE24
:10187400938717002326F4FE6F00000303A7C12AF1
:10188400832784FE93972700B307F70083A70700F5
:1018940093971700938717002322F4FE832784FE6F
:1018A400938717002324F4FE8327C4FB9385170032
:1018B400930704FC83A60700930704FC938747005F
:1018C40083A7070013870700032644FE130520009F
:1018D400EFE05FEA0327C4FE8327C4FDE36CF7F659
:1018E400032784FE832784FDE366F7F66F008000F8
:1018F400130000008320C1040324810413010105A3
:1019040067800000130101FD2326110223248102B4
:1019140013040103232EA4FC232CB4FC232AC4FCAB
:101924002328D4FC03A7012B832784FD9397570016
:10193400B307F70087A707012720F4FE072704FE53
:10194400930744FD87A7070003A7012B832784FD82
:1019540093975700B307F700D377F70027A8F7004A
:1019640003A7012B832784FD93975700B307F70040
:1019740013870701930704FE83A7070093850700D5
:1019840013050700EFE01FC703A7012B832784FD7E
:1019940093975700B307F70087A747012722F4FE60
:1019A400072744FE930704FD87A7070003A7012B1D
:1019B400832784FD93975700B307F700D377F70085
:1019C40027AAF70003A7012B832784FD93975700C9
:1019D400B307F70013874701930704FE9387470073
:1019E40083A707009385070013050700EFE09FC056
:1019F40003A7012B832784FD93975700B307F700B0
:101A04009386870003A7012B832784FD93975700B0
:101A1400B307F70093870701938507001385060032
:101A2400EF00C0362726A4FE87A701290727C4FE96
:101A3400D397E7A0639407006F00C00A0725C4FE8C
:101A4400EF00802B2324A4FE032784FE8327C4FDF8
:101A540063F6E70403A7012B832784FD93975700BC
:101A6400B307F7009387070183A6070003A7012B99
:101A7400832784FD93975700B307F70093874701A3
:101A840083A7070013870700032684FD832584FEAC
:101A940013053000EFE01FCE6F00C0048327C4FDA0
:101AA4009385170003A7012B832784FD9397570081
:101AB400B307F7009387070183A6070003A7012B49
:101AC400832784FD93975700B307F7009387470153
:101AD40083A7070013870700032684FD130530003E
:101AE400EFE05FC9130000008320C10203248102D8
:101AF4001301010367800000130101FD2326110275
:101B04002324810213040103EFE01FADEFF04F9F84
:101B1400B7D70280138587B4EF704125EFF00FE843
:101B24001305A000EF708102130600009305000066
:101B340013050000EFE0DFB91307C4FD930604FEAC
:101B4400130644FE930584FE9307C4FE1385070021
:101B5400EFE09FEF8327C4FE13073000638AE70694
:101B6400130730006366F708130720006382E70455
:101B740013072000636EF70663880700130710003D
:101B8400638CE7006F00C006832784FE138507007B
:101B9400EFF09F996F000006832784FE032744FE1D
:101BA4009305070013850700EFF01F9F6F00800463
:101BB400832784FE032744FE032604FE8326C4FDF4
:101BC4009305070013850700EFF0DFD36F00800251
:101BD400832784FE032744FE032604FE8326C4FDD4
:101BE4009305070013850700EFF09FA76F0080009F
:101BF40013000000EFE09F9C6FF01FF4130101FE3F
:101C0400232E1100232C8100130401022326A4FE99
:101C14002324B4FE0327C4FE930710006318F702BD
:101C2400032784FEB70701009387F7FF6310F702C9
:101C340013858130EF004028138641269385813037
:101C4400B7470080138587CAEF4041261300000080
:101C54008320C10103248101130101026780000074
:101C6400130101FF23261100232481001304010121
:101C7400B70701009385F7FF13051000EFF01FF875
:101C84008320C10003248100130101016780000047
:101C9400130101FE232E8100130401022326A4FE56
:101CA4002324B4FE832784FE138507000324C10183
:101CB4001301010267800000130101FE232E81003D
:101CC400130401022326A4FE2324B4FE2322C4FE0B
:101CD400832784FE03A70700832744FE83A7070006
:101CE400B3B7E70093F7F70F138507000324C10187
:101CF4001301010267800000130101FD2326810204
:101D040013040103272EA4FCB70700202326F4FEA6
:101D14008327C4FED3F717D00727C4FDD377F71062
:101D24002724F4FE872784FED39717C0130770FF78
:101D3400B307F7402322F4FE832744FE13850700EC
:101D44000324C1021301010367800000130101FE93
:101D5400232E8100130401022726A4FE8727C4FE34
:101D6400530700F0D397E7A0638807008727C4FED2
:101D7400D397F7206F0080008727C4FE5385F72090
:101D84000324C1011301010267800000130101FD56
:101D9400232611022324810213040103232EA4FC0D
:101DA400232CB4FC232604FE8327C4FD07A70700C5
:101DB400832784FD87A70700D377F7085385F72087
:101DC400EFF0DFF85307A5208727C4FED3F7E70019
:101DD4002726F4FE8327C4FD9387470007A707003F
:101DE400832784FD9387470087A70700D377F708E5
:101DF4005385F720EFF09FF55307A5208727C4FEEE
:101E0400D3F7E7002726F4FE8727C4FE5385F7207F
:101E14008320C102032481021301010367800000AF
:101E2400130101FE232E1100232C8100130401024F
:101E34002326A4FE0325C4FEEF00002613000000A1
:101E44008320C10103248101130101026780000082
:101E5400130101FE232E1100232C8100130401021F
:101E64002326A4FE8327C4FE13850700EF00001F6A
:101E7400130000008320C101032481011301010226
:101E840067800000130101FE232E1100232C810022
:101E9400130401022326A4FE8327C4FE138507002E
:101EA400EFF01FFB130000008320C1010324810114
:101EB4001301010267800000130101FE232E1100AB
:101EC400232C8100130401022326A4FE8327C4FECD
:101ED40023A0070023A2070023A407008327C4FE2E
:101EE40013850700EFF01FFA130000008320C101DF
:101EF400032481011301010267800000130101FE24
:101F0400232E1100232C8100232A91002328210150
:101F1400130401022326A4FE2324B4FE8327C4FE53
:101F2400832584FE13850700EF00402A8327C4FE1F
:101F340013850700EF008032930405008327C4FE55
:101F440013850700EF008035930705001306090089
:101F54009385070013850400EF0080381300000008
:101F64008320C10103248101832441010329010148
:101F74001301010267800000130101FE232E1100EA
:101F8400232C8100130401022326A4FE8327C4FE0C
:101F940013850700EF00C048930705001385070069
:101FA4008320C10103248101130101026780000021
:101FB400130101FE232E1100232C8100232A9100FA
:101FC40023282101130401022326A4FE8327C4FE2F
:101FD40013850700EF008028930405008327C4FEBF
:101FE40013850700EF00802B9307050013060900F3
:101FF4009385070013850400EF0040498327C4FE3E
:1020040013850700EF004050130000008320C10136
:1020140003248101832441010329010113010102E5
:1020240067800000130101FE232E1100232C810080
:10203400130401022326A4FE8327C4FE138507008C
:10204400EF00C05193070500138507008320C101E9
:10205400032481011301010267800000130101FEC2
:10206400232E1100232C8100130401022326A4FE35
:102074000325C4FEEF0080548327C4FE13850700A4
:10208400EF00C056130000008320C1010324810126
:102094001301010267800000130101FE232E1100C9
:1020A400232C8100130401022326A4FE0325C4FE6D
:1020B400EF004057130000008320C1010324810175
:1020C4001301010267800000130101FE232E110099
:1020D400232C8100130401022326A4FE8327C4FEBB
:1020E40083A507008327C4FE03A787008327C4FEB4
:1020F40083A70700B307F74013D7274093070700C8
:1021040093973700B387E70093966700B387D700A8
:1021140093973700B387E7009396F700B387D70008
:1021240093973700B387E700B307F040138607009F
:102134000325C4FEEF0000518327C4FE1385070066
:10214400EFF01FCE130000008320C101032481019E
:102154001301010267800000130101FE232E110008
:10216400232C8100232A9100232821011304010236
:102174002326A4FE8327C4FE83A407008327C4FE6A
:1021840003A947008327C4FE13850700EF004050CE
:1021940093070500138607009305090013850400BF
:1021A400EF0040518327C4FE13850700EFF0DFF1F1
:1021B400130000008320C101032481018324410111
:1021C400032901011301010267800000130101FECC
:1021D400232E1100232C8100130401022326A4FEC4
:1021E4002324B4FE8327C4FE03A747008327C4FE29
:1021F40083A78700630CF7020327C4FE8327C4FE6A
:1022040083A74700032684FE938507001305070070
:10221400EF00004E8327C4FE83A747001387C7013E
:102224008327C4FE23A2E7006F0000020325C4FE37
:10223400EF00C00693070500032684FE938507007C
:102244000325C4FEEF00804F130000008320C1016A
:10225400032481011301010267800000130101FDC1
:10226400232611022324810213040103232EA4FC38
:102274000327C4FD9307C4FE9305070013850700D5
:10228400EF00806D8327C4FE138507008320C102FD
:10229400032481021301010367800000130101FD7F
:1022A400232611022324810213040103232EA4FCF8
:1022B4008327C4FD138747009307C4FE93050700D3
:1022C40013850700EF0040698327C4FE13850700C8
:1022D4008320C102032481021301010367800000EB
:1022E400130101F9232611062324810623229106D2
:1022F40013040107232EA4FA232CB4FA230AC4FAE4
:10230400930744FB13850700EF000016930784FE30
:102314009385040013850700EF004067930784FB4F
:102324009305100013850700EF00C06993070500AB
:102334002326F4FE9307C4FE13850700EF00406FC5
:102344009307050013850700EF000071930705004C
:1023540003A8070003A5470083A5870003A6C700B9
:1023640083A6070103A7470183A78701232604FD4A
:102374002328A4FC232AB4FC232CC4FC232ED4FC41
:102384002320E4FE2322F4FE1307C4FB930784FBFB
:102394009305070013850700EF00406E93070500BF
:1023A4009384F7FF9307C4FC13850700EF00C06A0A
:1023B4009307050003A8070003A5470083A587002A
:1023C40003A6C70083A6070103A7470183A78701C4
:1023D400232804F9232AA4F8232CB4F8232EC4F8C0
:1023E4002320D4FA2322E4FA2324F4FA130784FEE4
:1023F400930704F9938607001306000093850400ED
:102404000325C4FBEF004070130000008320C106C5
:102414000324810683244106130101076780000019
:10242400130101FD23261102232481021304010355
:10243400232EA4FC0325C4FDEF00D0099307050057
:102444002326F4FE9307C4FE13850700EF00900CC7
:1024540093070500138507008320C102032481022A
:102464001301010367800000130101FE232E810084
:10247400130401022326A4FE8327C4FE1385070048
:102484000324C1011301010267800000130101FD4F
:10249400232611022324810213040103232EA4FC06
:1024A400232CB4FC230AC4FC1307C4FD930784FD46
:1024B4009305070013850700EF00405C93070500B0
:1024C40093A7270093C7170093F7F70F63840702B6
:1024D400930784FD13850700EF0050069307C4FE9D
:1024E40093860700032684FD832584FD0325C4FD0C
:1024F400EF005008130000008320C102032481026E
:102504001301010367800000130101FE232E110053
:10251400232C8100130401022326A4FE8327C4FE76
:1025240083A74700138747FE8327C4FE23A2E7003F
:102534000327C4FE8327C4FE83A7470093850700AF
:1025440013050700EF00501A130000008320C10197
:10255400032481011301010267800000130101FDBE
:10256400232611022324810213040103232EA4FC35
:102574000325C4FDEF000076930705002324F4FE31
:102584000325C4FDEF00D019930705002326F4FEAC
:102594001307C4FE930784FE930507001385070001
:1025A400EF00501C93070500138507008320C10228
:1025B400032481021301010367800000130101FE5B
:1025C400232E1100232C8100130401022326A4FED0
:1025D4000325C4FEEF00101F130000008320C10177
:1025E400032481011301010267800000130101FE2D
:1025F400232E8100130401022326A4FE8327C4FE94
:1026040023A007008327C4FE23A207008327C4FE58
:1026140023A40700130000000324C10113010102D5
:1026240067800000130101FE232E810013040102C0
:102634002326A4FE130000000324C1011301010298
:1026440067800000130101FE232E1100232C81005A
:10265400130401022326A4FE2324B4FE2322C4FE71
:10266400832784FE638C07008327C4FE032644FE6D
:10267400832584FE13850700EF00D01613000000A5
:102684008320C1010324810113010102678000003A
:10269400130101FE232E8100130401022326A4FE4C
:1026A4008327C4FE138507000324C101130101021B
:1026B40067800000130101FE232E1100232C8100EA
:1026C400130401022326A4FE2324B4FE2322C4FE01
:1026D400832584FE0325C4FEEF00D01413000000FC
:1026E4008320C101032481011301010267800000DA
:1026F400130101FE232E1100232C81001304010277
:102704002326A4FE2324B4FE2322C4FE032544FE70
:10271400EF00D0149307050013860700832584FE79
:102724000325C4FEEF00D015130000008320C1016F
:10273400032481011301010267800000130101FCDD
:10274400232E1102232C8102232A91022328210300
:10275400130401042326A4FC2324B4FC2322C4FC74
:10276400B7D70280138687B5930510000325C4FCF0
:10277400EF00101A930705002326F4FE8327C4FCF8
:1027840083A707002324F4FE8327C4FC83A7470000
:102794002322F4FE0325C4FCEFF05FAC930705008D
:1027A400232AF4FC130744FD930784FC93050700D4
:1027B40013850700EF00802C930705002320F4FE07
:1027C4008327C4FC8325C4FE13850700EF00D022B1
:1027D40093070500232EF4FC8327C4FD232CF4FC6B
:1027E4008324C4FC032704FE930707009397370050
:1027F400B387E74093972700138707008327C4FD17
:102804003389E700032544FCEF00500593070500D6
:10281400138607009305090013850400EFF05FEDAC
:10282400232C04FC930784FC13850700EF009026F7
:102834009307050083A407008327C4FC13850700BE
:10284400EFF01FE593070500938607000326C4FDF8
:1028540093850400032584FEEF00101F232CA4FCA1
:10286400832784FD9387C701232CF4FC930784FCFE
:1028740013850700EF0010229307050083A40700C7
:102884008327C4FC13850700EFF09FE0930705003E
:1028940093860700032684FD832544FE13850400E4
:1028A400EF00901A232CA4FC0325C4FC8327C4FC4A
:1028B40003A78700832784FEB307F74013D7274075
:1028C4009307070093973700B387E7009396670051
:1028D400B387D70093973700B387E7009396F70041
:1028E400B387D70093973700B387E700B307F04067
:1028F40013860700832584FEEFF0DFD48327C4FC0E
:102904000327C4FD23A0E7008327C4FC032784FD19
:1029140023A2E7000327C4FE930707009397370019
:10292400B387E74093972700138707008327C4FDE5
:102934003387E7008327C4FC23A4E70013000000C7
:102944008320C10303248103832441030329010356
:102954001301010467800000130101FE232E81008E
:10296400130401022326A4FE2324B4FE832784FE39
:1029740003A707008327C4FE23A0E7001300000079
:102984000324C1011301010267800000130101FE49
:10299400232E1100232C8100130401022326A4FEFC
:1029A4002304B4FE930784FE13850700EFF0DFAB26
:1029B400130000008320C1010324810113010102DB
:1029C40067800000130101FD2326110223248102E4
:1029D40013040103232EA4FC232CB4FC8327C4FD7D
:1029E40083A60700032784FD930707009397370006
:1029F400B387E74093972700B307F040B387F60007
:102A04002326F4FE1307C4FE930784FE93050700F0
:102A140013850700EFF05FF4832784FE1385070016
:102A24008320C10203248102130101036780000093
:102A3400130101FE232E8100130401022326A4FEA8
:102A44008327C4FE83A70700138507000324C1015D
:102A54001301010267800000130101FE232E81008F
:102A6400130401022326A4FE8327C4FE1385070052
:102A74000324C1011301010267800000130101FE58
:102A8400232E1100232C8100232A91001304010218
:102A94002326A4FE2324B4FE0325C4FEEF00807F76
:102AA4009307050083A40700032584FEEF00807EBE
:102AB4009307050083A70700B387F44013D7274083
:102AC4009307070093973700B387E700939667004F
:102AD400B387D70093973700B387E7009396F7003F
:102AE400B387D70093973700B387E700B307F04065
:102AF400138507008320C10103248101832441013C
:102B04001301010267800000130101FD2326110255
:102B1400232481022322910223202103130401038D
:102B2400232EA4FC232CB4FC232AC4FC1389060002
:102B34002328E4FC832784FD9387F7FF13D7F70149
:102B4400B307F70093D717402326F4FE6F00800BDA
:102B54009307C4FD8325C4FE13850700EF00C075E9
:102B6400930705002320F4FE930704FE1385070052
:102B7400EFF01FEC9307050013850700EFF0DFED7E
:102B8400930405009307C4FD832584FD1385070082
:102B9400EF008072930705002322F4FE930744FE9E
:102BA40013850700EFF0DFE89307050083A804000E
:102BB40003A8440003A5840083A5C40003A604015C
:102BC40083A6440103A7840123A0170123A20701BC
:102BD40023A4A70023A6B70023A8C70023AAD700CD
:102BE40023ACE7008327C4FE232CF4FC832784FD55
:102BF4009387F7FF13D7F701B307F70093D717406D
:102C04002326F4FE032784FD832744FD63DCE702C7
:102C14009307C4FD8325C4FE13850700EF00C06934
:102C2400930705001306090093850700032504FD97
:102C3400EF00006F930705006386070093071000F9
:102C44006F00800093070000E39407F01305090068
:102C5400EFF09FE0930405009307C4FD832584FDF2
:102C640013850700EF004065930705002324F4FE55
:102C7400930784FE13850700EFF09FDB930705009D
:102C840083A8040003A8440003A5840083A5C4000A
:102C940003A6040183A6440103A7840123A017010A
:102CA40023A2070123A4A70023A6B70023A8C700D3
:102CB40023AAD70023ACE700130000008320C1023D
:102CC4000324810283244102032901021301010325
:102CD40067800000130101FD2326110223248102D1
:102CE40013040103232EA4FC0327C4FD9307C4FE8D
:102CF4009305070013850700EF0080688327C4FE4F
:102D0400138507008320C1020324810213010103F8
:102D140067800000130101FE232E810013040102C9
:102D24002326A4FE8327C4FE83A707001385070078
:102D34000324C1011301010267800000130101FE95
:102D4400232E8100130401022326A4FE8327C4FE3C
:102D540083A70700138747FE8327C4FE23A0E70049
:102D64008327C4FE138507000324C1011301010254
:102D740067800000130101FA232E1104232C81041F
:102D8400232A9104130401062326A4FC2324B4FC5F
:102D94002322C4FC2320D4FC930744FC138507009E
:102DA400EFF01FC99307050013850700EFF0DFCA92
:102DB4009307050003A8070003A5470083A5870020
:102DC40003A6C70083A6070103A7470183A78701BA
:102DD400232A04FD232CA4FC232EB4FC2320C4FEAC
:102DE4002322D4FE2324E4FE2326F4FE9307C4FC0A
:102DF40013850700EFF0DFC3930705001385070071
:102E0400EFF09FC593040500930744FC1385070066
:102E1400EFF01FC29307050083A8040003A8440031
:102E240003A5840083A5C40003A6040183A644016A
:102E340003A7840123A0170123A2070123A4A70049
:102E440023A6B70023A8C70023AAD70023ACE70012
:102E54001307C4FC930784FC93050700138507003C
:102E6400EFF0DFC193040500930744FD13850700C9
:102E7400EFF09FBE9307050003A8070003A54700D2
:102E840083A5870003A6C70083A6070103A74701FC
:102E940083A78701232004FB2322A4FA2324B4FA62
:102EA4002326C4FA2328D4FA232AE4FA232CF4FA96
:102EB400832704FC930604FA83C7070013870700DB
:102EC40013860400930500000325C4FCEF00804E24
:102ED400130000008320C1050324810583244105D8
:102EE4001301010667800000130101FE232E110067
:102EF400232C8100130401022326A4FE2324B4FE00
:102F0400832584FE0325C4FEEF000079130000002E
:102F14008320C101032481011301010267800000A1
:102F2400130101FD2326110223248102130401034A
:102F3400232EA4FC8327C4FD138747009307C4FEF4
:102F44009305070013850700EF0080438327C4FE21
:102F5400138507008320C1020324810213010103A6
:102F640067800000130101FE232E1100232C810031
:102F7400232A9100130401022326A4FE2324B4FE71
:102F84000325C4FEEF0080739307050083A40700A4
:102F9400032584FEEF0080729307050083A70700D2
:102FA400B387F44093B7170093F7F70F138507001F
:102FB4008320C101032481018324410113010102FF
:102FC40067800000130101FE232E81001304010217
:102FD4002326A4FE130000000324C10113010102EF
:102FE40067800000130101FE232E1100232C8100B1
:102FF400130401022326A4FE2324B4FE2322C4FEC8
:10300400032644FE832584FE0325C4FEEF00406DA1
:10301400130000008320C101032481011301010274
:1030240067800000130101FE232E1100232C810070
:10303400130401022326A4FE2324B4FE832584FE64
:103044000325C4FEEF00806E130000008320C1013D
:10305400032481011301010267800000130101FEB2
:10306400232E8100130401022326A4FE8327C4FE19
:10307400138507000324C1011301010267800000C6
:10308400130101FE232E1100232C8100232A910019
:10309400130401022326A4FE2324B4FE2322C4FE27
:1030A400832784FE938507001305C001EFE05FBE0C
:1030B40093040500032544FEEFF05FFA930705002F
:1030C40003A8070003A5470083A5870003A6C7003C
:1030D40083A6070103A7470183A7870123A004014F
:1030E40023A2A40023A4B40023A6C40023A8D400CC
:1030F40023AAE40023ACF400130000008320C101E0
:10310400032481018324410113010102678000002B
:10311400130101FD2326110223248102232291029B
:1031240013040103232EA4FC232CB4FC232AC4FC83
:103134000325C4FDEF00C061930405000325C4FD0D
:10314400EF004065930705003387F440832784FD2F
:10315400B337F70093F7F70F63860700032544FDA1
:10316400EFD04F980325C4FDEF00C062930405001F
:103174000325C4FDEF000062930705002324F4FE39
:10318400130784FD930784FE930507001385070046
:10319400EF00C0669307050083A70700B387F40018
:1031A4002326F4FE0325C4FDEF00C05E13070500CB
:1031B4008327C4FE63ECE7000325C4FDEF004059F8
:1031C400130705008327C4FE637AF7000325C4FDB3
:1031D400EF000058930705006F0080008327C4FEAA
:1031E400138507008320C102032481028324410242
:1031F4001301010367800000130101FE232E110057
:10320400232C8100130401022326A4FE2324B4FEEC
:10321400832784FE638E07008327C4FE832584FEF0
:1032240013850700EF00C061930705006F0080005D
:1032340093070000138507008320C1010324810143
:103244001301010267800000130101FE232E110007
:10325400232C8100130401022326A4FE2324B4FE9C
:103264002322C4FE2320D4FE832604FE032644FE28
:10327400832584FE0325C4FEEF00806093070500C8
:10328400138507008320C101032481011301010276
:1032940067800000130101FE232E81001304010244
:1032A4002326A4FE8327C4FE138507000324C1013B
:1032B4001301010267800000130101FD232611029E
:1032C4002324810213040103232EA4FC232CB4FC25
:1032D4008327C4FD83A60700032784FD9307070003
:1032E40093973700B387E74093972700B387F60097
:1032F4002326F4FE1307C4FE930784FE93050700F8
:1033040013850700EFF04FE5832784FE138507003C
:103314008320C1020324810213010103678000009A
:10332400130101FE232E1100232C8100232A910076
:10333400130401022326A4FE2324B4FE2322C4FE84
:103344008324C4FE930784FE13850700EFF04FEE39
:1033540093070500032644FE9385070013850400A4
:10336400EFE09F9593070500138507008320C101B3
:1033740003248101832441011301010267800000B9
:10338400130101FE232E8100130401022326A4FE4F
:103394002324B4FE832784FE03A707008327C4FEE7
:1033A40023A0E700130000000324C101130101025C
:1033B40067800000130101FA232E1104232C8104D9
:1033C400232A910423282105130401062326A4FC9F
:1033D4002324B4FC2322C4FC138906002300E4FC48
:1033E400832784FC2324F4FE832784FC2326F4FE11
:1033F4006F0080108327C4FE9387170093971700EC
:103404002326F4FE9307C4FC8325C4FE138507001A
:10341400EFF09FEA930405008327C4FE1387F7FFA8
:103424009307C4FC9305070013850700EFF0DFE85A
:1034340013070500930704FC130607009385040093
:1034440013850700EF00C04B93070500638807004E
:103454008327C4FE9387F7FF2326F4FE9307C4FC57
:103464008325C4FE13850700EFF01FE593070500CD
:10347400232CF4FC930784FD13850700EFF04FDB46
:103484009307050013850700EFF00FDD9304050093
:103494009307C4FC832584FC13850700EFF0DFE168
:1034A40093070500232EF4FC9307C4FD138507003E
:1034B400EFF00FD89307050083A8040003A8440085
:1034C40003A5840083A5C40003A6040183A64401C4
:1034D40003A7840123A0170123A2070123A4A700A3
:1034E40023A6B70023A8C70023AAD70023ACE7006C
:1034F4008327C4FE2324F4FC832744FC9387F7FF2B
:1035040013D7F701B307F70093D7174013870700C2
:103514008327C4FEE3C0E7EE832744FC93F7170038
:10352400639E070C832744FC9387E7FF13D7F701B7
:10353400B307F70093D71740138707008327C4FE08
:10354400639EE70A8327C4FE9387170093971700A7
:103554002326F4FE8327C4FE1387F7FF9307C4FCD6
:103564009305070013850700EFF01FD593070500A7
:103574002320F4FE930704FE13850700EFF04FCBDE
:103584009307050013850700EFF00FCD93040500A2
:103594009307C4FC832584FC13850700EFF0DFD177
:1035A400930705002322F4FE930744FE13850700C6
:1035B400EFF00FC89307050083A8040003A8440094
:1035C40003A5840083A5C40003A6040183A64401C3
:1035D40003A7840123A0170123A2070123A4A700A2
:1035E40023A6B70023A8C70023AAD70023ACE7006B
:1035F4008327C4FE9387F7FF2324F4FC930704FC7A
:1036040013850700EF00403713070500930744FDB7
:103614009305070013850700EF00403813050900E0
:10362400EFF08FC39307050003A8070003A5470025
:1036340083A5870003A6C70083A6070103A7470144
:1036440083A78701232004FB2322A4FA2324B4FAAA
:103654002326C4FA2328D4FA232AE4FA232CF4FADE
:10366400130744FD930704FA93860700032684FE98
:10367400832584FC0325C4FCEFF00FC9130000006C
:103684008320C10503248105832441050329010501
:103694001301010667800000130101FE232E81003F
:1036A400130401022326A4FE2324B4FE1300000005
:1036B4000324C1011301010267800000130101FE0C
:1036C400232E8100130401022326A4FE8327C4FEB3
:1036D400138507000324C101130101026780000060
:1036E400130101FE232E1100232C81001304010277
:1036F4002326A4FE2324B4FE2322C4FE032744FE6F
:103704009307070093973700B387E7409397270001
:1037140093850700032584FEEF00005C8320C1012C
:10372400032481011301010267800000130101FEDB
:10373400232E8100130401022326A4FE2324B4FEB5
:10374400130000000324C10113010102678000007B
:10375400130101FE232E1100232C81001304010206
:103764002326A4FE8327C4FE13850700EF00802CC4
:103774009307050013850700EF00C0259307050094
:10378400138507008320C101032481011301010271
:1037940067800000130101FE232E8100130401023F
:1037A4002326A4FE8327C4FE03A747008327C4FE61
:1037B40083A70700B307F74013D7274093070700F1
:1037C40093973700B387E70093966700B387D700D2
:1037D40093973700B387E7009396F700B387D70032
:1037E40093973700B387E700B307F04013850700CA
:1037F4000324C1011301010267800000130101FECB
:10380400232E8100130401022326A4FE2324B4FEE4
:103814008327C4FE03A70700832784FE83A707002A
:103824006376F700832784FE6F0080008327C4FE3D
:10383400138507000324C1011301010267800000FE
:10384400130101FE232E1100232C81001304010215
:103854002326A4FE2324B4FE13060000832584FE3D
:103864000325C4FEEF00401F9307050013850700DE
:103874008320C10103248101130101026780000038
:10388400130101FE232E1100232C8100232A910011
:1038940023282101130401022326A4FE2324B4FEB9
:1038A4002322C4FE2320D4FE0325C4FEEF00C0233C
:1038B40093040500032584FEEF000023130905008B
:1038C400032544FEEF00402293070500832604FEEF
:1038D400138607009305090013850400EF000023F5
:1038E40093070500138507008320C1010324810188
:1038F40083244101032901011301010267800000AF
:10390400130101FE232E1100232C8100232A910090
:1039140023282101130401022326A4FE2324B4FE38
:103924002322C4FE8324C4FE930784FE1385070068
:10393400EFF00F9013090500930744FE1385070069
:10394400EFF00F8F93070500138607009305090016
:1039540013850400EFE04FB69307050013850700B5
:103964008320C1010324810183244101032901012E
:103974001301010267800000130101FE232E810060
:10398400130401022326A4FE8327C4FE1385070023
:103994000324C1011301010267800000130101FE29
:1039A400232E1100232C8100130401022326A4FEDC
:1039B4002324B4FE832784FE13850700EFE0DFAAE7
:1039C400130000008320C1010324810113010102BB
:1039D40067800000130101FD2326110223248102C4
:1039E40013040103232EA4FCB75792049387479230
:1039F4002326F4FE0325C4FDEF00801D9307050074
:103A04002324F4FE130784FE9307C4FE93050700E2
:103A140013850700EF00001F9307050083A7070025
:103A2400138507008320C1020324810213010103CB
:103A340067800000130101FE232E8100130401029C
:103A44002326A4FE8327C4FE138507000324C10193
:103A54001301010267800000130101FE232E1100EF
:103A6400232C8100130401022326A4FE2324B4FE84
:103A74002322C4FE0325C4FEEF00001D1307050026
:103A8400832784FEB337F70093F7F70FB337F000BB
:103A940093F7F70F638E0700032784FEB797240973
:103AA4009387972463F4E700EFC00FEBEFC0CFE7F1
:103AB400032784FE9307070093973700B387E740F3
:103AC4009397270013850700EF00D05B9307050049
:103AD40013000000138507008320C1010324810122
:103AE4001301010267800000130101FE232E8100EF
:103AF400130401022326A4FE8327C4FE13850700B2
:103B04000324C1011301010267800000130101FDB8
:103B1400232611022324810213040103232EA4FC6F
:103B2400232CB4FC232AC4FC2328D4FC032784FDBF
:103B34008327C4FDB307F74013D727409307070033
:103B440093973700B387E70093966700B387D7004E
:103B540093973700B387E7009396F700B387D700AE
:103B640093973700B387E700B307F0402326F4FEAA
:103B74008327C4FE6354F0020327C4FE930707009F
:103B840093973700B387E74093972700138607007E
:103B94008325C4FD032544FDEF40914B0327C4FE58
:103BA4009307070093973700B387E740939727005D
:103BB40013870700832744FDB387E70013850700B5
:103BC4008320C102032481021301010367800000E2
:103BD400130101FE232E1100232C81001304010282
:103BE4002326A4FE0325C4FEEF00800893070500E6
:103BF400138507008320C1010324810113010102FD
:103C040067800000130101FE232E810013040102CA
:103C14002326A4FE2324B4FE832784FE03A70700DF
:103C24008327C4FE83A707006376F700832784FEF7
:103C34006F0080008327C4FE138507000324C1019D
:103C44001301010267800000130101FE232E81008D
:103C5400130401022326A4FEB757920493874792C4
:103C6400138507000324C1011301010267800000CA
:103C7400130101FE232E1100232C810013040102E1
:103C84002326A4FE0325C4FEEFF01FFC93070500C2
:103C9400138507008320C10103248101130101025C
:103CA40067800000130101FE232E1100232C8100E4
:103CB400130401022326A4FE8327C4FE13850700F0
:103CC400EFE08FC9130000008320C10103248101A8
:103CD40013010102678000006F60D02B13070000FE
:103CE40093060000834705001305150013F6F70734
:103CF400939787013316D60093D787413367C7005C
:103D040093867600E3C007FE23A0E50067800000E9
:103D140093070000130700008346050013051500F0
:103D240013F6F6073316E600B3E7C70013968601C9
:103D34001356864113077700E34006FE1306F0018D
:103D4400636CE60093F60604638806009306F0FFAE
:103D54003397E600B3E7E70023A0F500678000008F
:103D640083270600130101FD23248102232EF10081
:103D740083A70500232291022326B10083A787008D
:103D8400232611029304050013850500130406007D
:103D9400E78007008325C100630805008327C1016C
:103DA40083A70700232EF10083A7040093061000C5
:103DB4001306C10183A7070113850400E7800700E8
:103DC400630605008327C1012320F4008320C10278
:103DD400032481028324410213010103678000004C
:103DE400130101FD23229102232021032326110222
:103DF40023248102232E31019307000513090600B1
:103E040093840600631AF502130536001375C5FF83
:103E140083270500130545008320C1020324810282
:103E240023A0F40003290102832441028329C10150
:103E340013010103678000009377F5001307C000A6
:103E4400930905006360F71037D702809397270022
:103E5400130747B7B387E70083A707001384050058
:103E6400678007009305C10013050600EFF01FE704
:103E74008327C100E38207FA13F7090793060001B9
:103E84006314D700130409009399890193D98941D4
:103E9400B3878700E3D209F883A707006FF0DFF741
:103EA4009305C10013050600EFF09FE66FF05FFC79
:103EB400834716000347060093978700B3E7E7009C
:103EC400130529006FF01FFB834716000347060004
:103ED40093978700B3E7E7009397070193D70741C8
:103EE4006FF01FFE834716000347060013054600C4
:103EF40093978700B3E7E7000347260013170701EA
:103F04003367F7008347360093978701B3E7E700E9
:103F14006FF05FF68347160003470600130586001B
:103F240093978700B3E7E7000347260013170701B9
:103F34003367F7008347360093978701B3E7E700B9
:103F44006FF05FF3EF101158130101FE232C810071
:103F5400232E110013040500232A910083444401F5
:103F64009307F00F138505006384F40693F7740038
:103F7400130720006382E7066368F7009305400097
:103F8400638E0700EF10115413073000638AE704AF
:103F94001307400093058000E396E7FEEFE0C0318D
:103FA4000326C400832584009306C1003306A6407B
:103FB40013850400EFF0DFE28320C10103248101B3
:103FC4000325C1008324410113010102678000001D
:103FD400930500006FF09FFC930520006FF01FFC19
:103FE400930540006FF09FFB130101FD2324810220
:103FF4000324C50093C6F6FF232291022320210344
:104004002326110293040500138905002326C10009
:104014003304D4009305C10113050400EFF01FCC51
:104024008325C10113040500638A05021385040076
:10403400EFF09FF11306C10093050900EFF05FD282
:10404400E30A05FC8320C102032481028324410284
:104054000329010213010103678000001305000016
:104064006FF05FFE1307F00F930705006300E5048C
:1040740093F707071307000313850500638EE70210
:10408400636EF700130700026386E7026370F702AA
:10409400130101FF23261100EF10D142130700047E
:1040A400638EE70013070005E394E7FE13050000A1
:1040B400678000006FF010636FF050626FF0105F64
:1040C400130101FE232C81001384050093050500D0
:1040D40013050400232E11002326C1002324D1003C
:1040E400EFF05FF893050500130504000324810134
:1040F400832681000326C1008320C101130101022C
:104104006FF01FCE130101FE232C8100232A91009E
:1041140023282101232E110093040500138905008F
:10412400130406009307000063060500EFF010581F
:10413400930705002320F400834509001307F00FBB
:1041440013061900638CE5069306440013850400E6
:10415400EFF01FF713060500034706009306F00F60
:1041640013051600230AE40093070000630AD7002E
:104174009305C100EFF09FB68327C100B307F50094
:104184002326F400834705009305C1001305150099
:10419400A30AF400EFF09FB48327C1008320C10178
:1041A40083244101B307F5002328F400032481018B
:1041B4000329010113010102678000002322F40096
:1041C4006FF09FF9130101F82324F100232E110647
:1041D400232C8106232A910623282107232631072D
:1041E400232441072322510723206107232E71052D
:1041F400232C8105232A91052328A1052326B10513
:1042040023280100232A0100930710006316F536C2
:1042140003AC011A83A7411A13840500330C8601E9
:10422400B386F6003336CC0093076000930407008E
:104234003309D6006392F50263100902636E8501A7
:10424400032B47FF832987FE832C07FF63180B2268
:1042540013850400EF60807803258100EFF090441B
:10426400930C0500630C050E9305050003258100DE
:1042740013068102EFF01FE9832581002326A100A4
:104284000345C103EFF01FDE2328A10203258100AB
:1042940093054101EFF0503F832741010326C100FC
:1042A40093090500639407009309F5FF832A8103AA
:1042B4006362560393771400639C07261374840087
:1042C400631804006316090093071000E3F287F9EA
:1042D400EF00403B8345D1039306810113050000A1
:1042E4002326B100EFF0DFDD8325C10013060500AE
:1042F4009306C10113050000EFF09FDC8325C10084
:10430400130605009306010213050000EFF05FDBBE
:1043140093054102EFF09F9C8327810203278101CB
:1043240013060500B387E70063ECF90A0327C1010C
:10433400B387E700E3FCF9F6032B0102832741026C
:10434400630E0B000327C102330BEB0063880704E1
:104354009387F7FFB38AFA0063180B0813058000EC
:104364008320C1070324810783244107032901070C
:104374008329C106032A8106832A4106032B0106E9
:10438400832BC105032C8105832C4105032D0105D5
:10439400832DC1041301010867800000E3000BFCB6
:1043A40013741400E31C04FA93090000032581002C
:1043B400138604009305A000EFF050260325810026
:1043C400138609009305B000EFF050250325810002
:1043D40093050B00EFF0902C130570006FF05FF85D
:1043E40013860A006FF09FEC137D840063140D0C98
:1043F4006316090C9307100063E2870D03C70400DA
:1044040093870402137717006304070083A704FD4E
:1044140083AB07FB2328F100930D00009305C10132
:1044240013850A00EFF0DF8E93050102130A0500DD
:10443400EFF01F8E8329C1016388090E635430098C
:104444009385090013058102EFF01FB0630C05008A
:1044540063840B0C1306010193850B00EFF05F904E
:10446400630C050A13741400631A040C631E0D0E06
:10447400631C090E9307100063E8870FE3D809F261
:10448400032581001306810293850C00EFF09FC77A
:104494000344C1038325810013050400EFF09FBC8E
:1044A4008325810013050400EFF0DFBB23AAA4FEDB
:1044B4006FF0DFEF938B411F6FF01FF6938BC11FDB
:1044C4006FF09FF5638C0B02631A0D0263180902E7
:1044D4009307100063E48703032601019386090010
:1044E40093850B0013058102EFF01FB063160502DC
:1044F40013741400631604046FF0DFF78327410379
:1045040013C5F9FF930541023385A700EFF00FFDB2
:1045140083274102E38807F4832A010263820A069F
:10452400B30A5A016FF09FEF930D10006FF0DFFE96
:1045340093090000130B0000930A000063120902A0
:104544009307100063EE87018327010123A434FF3E
:1045540023A654FF23A894FF23ACF4FE23AA64FFEC
:10456400130560006FF0DFDFE3D209E4EF0080138E
:10457400EF60404C6FF0DFD5130530006FF05FDE65
:10458400E3900DE26FF09FDD130101FB232481040E
:10459400232291041304050023202105232E310333
:1045A40023261104EF600049832744FF032584FD7B
:1045B400832904FF832484FE0329C4FD2320F102FC
:1045C400EF00400DEF600047EF6040638327050074
:1045D40003C7070313840705137717006304070051
:1045E40003A4070013068101938509001305000045
:1045F400EFF05FB1832504FB9386040013060400E7
:1046040013058101EFF05F9E630E0500EF00C01FEC
:104614002326A100EF60C04BEF60804B0325C1004F
:10462400EFF0D05D37E402809386040013060000A7
:104634009305844813058101EFF01F9B6304050271
:1046440013054000EF60C02AB7E702809387474F05
:1046540037B600802320F500130606BB9305844873
:10466400EF00001513050900EF004000130101FFDE
:1046740023261100E7000500EF10C164EF60803BC2
:10468400EF10416403A54127130101FF2326110004
:10469400EFF0DFFD130101FF23261100E700050001
:1046A400EFF05FFE03A5C126130101FF23261100CD
:1046B400EFF05FFE9307050063160500B75700800F
:1046C4009387478F03A5412723AAF126678000001B
:1046D40003A54127678000009307050063160500C2
:1046E400B74700809387876803A5C12623A6F126D0
:1046F4006780000003A5C12667800000130101FE46
:10470400232E11009307100063F6A70003A5C5FD2F
:10471400EFF0DFF503A705FC9306F7FF23A0D5FC14
:104724006314F70283A745FD138505026388070018
:104734002326A100E78007000325C1008320C101CF
:10474400130101026F6040208320C10113010102A3
:1047540067800000130101FF232611002324810038
:104764002328B5FA232AC5FA232005FA13040500E1
:10477400EFF05FF8232CA4FAEFF09FF503A7811A5A
:1047840083A7C11A232EA4FA8320C1002322F4FE96
:10479400B7470080938707702320E4FE2324F4FEA8
:1047A400130504FA0324810013010101678000004A
:1047B400130101FE232E1100232C81002326B100B6
:1047C400130405002324C100EF60C0438327450080
:1047D400032681008325C100938717002322F50057
:1047E40013050400EFF01FF79307100013040504EA
:1047F4002320F50013050400EFF0807D1305040069
:10480400EF604023EFF01FE8130101FF232611009E
:1048140023248100EF60003F032745008327050020
:10482400130717002322E5006384070403A7070383
:1048340083A6011A03A6470383A5411AB306D7002A
:1048440033B7E6003306B6003307C7006316070024
:10485400130710006370D702232005001384070395
:1048640013050400EFF0905013050400EF60801C62
:10487400EFF05FE103A747013307E04023AAE70015
:104884006FF0DFFD130101FF2324810023261100B3
:104894001304050063140500130410001305040039
:1048A400EF304154630A05008320C10003248100D2
:1048B4001301010167800000EF60C039631605022F
:1048C40013054000EF60C002B7D70280938787CEFC
:1048D40037560080B7D502802320F500130606DB87
:1048E400938545CDEFF0DFECE70005006FF01FFB8B
:1048F40003C7812B130101FD232481022326110206
:104904002322910223202103630E070083A7C127DA
:1049140037D50280130585BA83A5C700EF20C101EE
:10492400EF10413A13071000238CE12AEF60002EA8
:104934006308050C832445009307A00203C7040001
:104944006314F700938414009307F0FF9306C101E6
:10495400130600009305000013850400232EF100C4
:10496400EF50104C83A7C1271309050037D50280E7
:1049740083A5C700130585BCEF10117C8327C101F3
:104984006398070683A7C1271305090083A5C700F9
:10499400EF10917A83A7C12737D502801305C5BFCD
:1049A40083A5C700EF1051798327C10163960700DF
:1049B40013050900EF30C143EFF01FE59307100022
:1049C400639EF506EF6000078327050083A7870031
:1049D400E780070083A7C1279304050037D5028029
:1049E40083A5C700130505C3EF1011756F0080027E
:1049F40083A7C1271385040083A5C7006FF05FF95F
:104A040083A7C12737D50280130505C083A5C70036
:104A14006FF0DFF083A7C1271385040083A5C700C7
:104A2400EF10917183A7C1271305A00083A5C700C8
:104A3400EF10515FEF60C0096FF09FEEEF50907F71
:104A4400EF6000096FF0DFED2326A100EF6040085E
:104A54000325C100EFF0901A130101FC232E11006D
:104A6400232C8100232A910013040102232821010D
:104A74002328E400232C0401232E14012322B40050
:104A84002324C4002326D400232AF400930405001D
:104A9400EF5001649307752193F707FF3301F14049
:104AA4001309F100137909FF9305052093064400C7
:104AB40013860400130509002326D4FEEF00801B8F
:104AC40013058000EF50D06293050900930405009C
:104AD400EF60D03D37B60080B7E5028013060600CC
:104AE4009385C56413850400EFF09FCC130905007A
:104AF40013850400EF50506513050900EFF0101002
:104B0400130101F723261108232481082322910885
:104B14001304010923202109232E3107938405005E
:104B2400B7D5028093090500130690069385C5C383
:104B3400130544F7EF309137B38434419387040865
:104B440093F707FF3301F1401309F100137909FFCB
:104B540013068006930544F713050900EF30113559
:104B6400138604009385090013058906EF30113478
:104B7400B30499002384040613050900EFB0CFE6BB
:104B8400130101FD23248102232291022320210306
:104B9400232E3101232C4101232A510123286101B1
:104BA400232671012322910123261102232481014A
:104BB40013040103130101FE9309F10093F909FFA2
:104BC4009384C900B7DB0280930A0500138B0500A8
:104BD40013090600138A0400938B8BCA930C90006C
:104BE4009305A00013050900EFD040743385AB0092
:104BF400834705009305A00013050900A30FFAFEDF
:104C0400130C0900EFD0006E130AFAFF1309050014
:104C1400E3E88CFDB3844441636A9B04B385994003
:104C2400138604009385C50013850A00EF3011280C
:104C3400130104FD8320C1021385040003248102AF
:104C440083244102032901028329C101032A81012A
:104C5400832A4101032B0101832BC100032C810012
:104C6400832C410013010103678000009304F0FFCB
:104C74006FF01FFC130101FD9385F5FF23248102CE
:104C84002322910223202103232E3101232C4101CD
:104C9400232A5101232861012326710123261102AD
:104CA400232481011309050093040600B309B50008
:104CB40013040500130A5002930A3007130BA007CC
:104CC400930B500783C704006380070A637234059B
:104CD400639C470183C7140063825703638E67058F
:104CE400639447019384140083C7040013041400DD
:104CF40093841400A30FF4FE6FF0DFFC83A7060077
:104D04001386460003C707006302070263183401D1
:104D14009305040013050900EFF09FDE130414004B
:104D240093871700A30FE4FE6FF0DFFD9384240044
:104D3400930606006FF01FF983C72400E39677FB00
:104D440003A60600B385894013050400138C4600AE
:104D5400EFF01FE3E35EA0FA3304A400938434006D
:104D640093060C006FF01FF6230004003305244162
:104D74008320C10203248102832441020329010206
:104D84008329C101032A8101832A4101032B0101E3
:104D9400832BC100032C81001301010367800000F1
:104DA40037D50280130545CB67800000B7D7028052
:104DB400938787CE2320F5006F50105F130101FF06
:104DC400232481002326110013040500EFF01FFEA5
:104DD40013050400032481008320C10093054000CF
:104DE400130101016FE05FEF37D50280130545CF52
:104DF40067800000B7D70280938707D42320F5008B
:104E04006FF0DFFA130101FF232481002326110030
:104E140013040500EFF01FFE1305040003248100B2
:104E24008320C10093054000130101016FE0DFEA14
:104E340037D502801305C5D467800000B7D7028038
:104E44009387C7D72320F5006F501056130101FF35
:104E5400232481002326110013040500EFF01FFE14
:104E640013050400032481008320C100930540003E
:104E7400130101016FE05FE637D50280130585D881
:104E840067800000B7D702809387C7DB2320F50033
:104E94006F509051130101FF232481002326110038
:104EA40013040500EFF01FFE130504000324810022
:104EB4008320C10093054000130101016FE0DFE18D
:104EC4009307E0046300F50263E8A700130545FEB9
:104ED4001335550067800000130505FB13352500C5
:104EE40067800000130510006780000083264501D9
:104EF400832785011307050063D6F602832705017E
:104F0400139626003306D600131626003385C700F1
:104F1400232205002324050093861600232AD700A4
:104F2400678000001305000067800000130101FF83
:104F34002324810023229100232021012326110010
:104F440093071003138405001309060093840600D5
:104F540063EAB70A9307800263E0B7029307A000ED
:104F640063EEB7029307400063E4B70863040906DD
:104F7400639A040C6F000006938775FD1307800085
:104F8400636AF70437D7028093972700130787DCF7
:104F9400B387E70083A7070067800700138755FFDF
:104FA40093071000B397E7003727802F1307E7FF15
:104FB40033F7E7006314070437C73F0033F7E7000C
:104FC400631207083707400013071700B3F7E70019
:104FD400E39E07F8130500008320C1000324810029
:104FE40083244100032901001301010167800000AB
:104FF400938775FF13071000E36EF7FC631409042D
:105004006FF05FFD1387C5FC9307D001E3E4E7FC71
:1050140093071000B397E7003717C70113077710FA
:1050240033F7E700E31C07FC3737000A130787EF61
:1050340033F7E700E31C07F237070034B3F7E70060
:10504400E38A07F8EFF09FEAE30605F823208500DA
:1050540023262501232895006FF01FF8130101FF73
:105064002324810023229100232611009384050028
:1050740013040600EFF09FE763000502638804024F
:105084006356800223220500232405002320050003
:1050940023269500232885008320C1000324810052
:1050A40083244100130101016780000013050000FF
:1050B4006FF09FFE130101FF2324810023261100BA
:1050C40013840500EFF09FE2630805009307700264
:1050D4002320F500232685008320C10003248100BA
:1050E40013010101678000000327C500130101FEBD
:1050F4002328210123244101232E1100232C810084
:10510400232A9100232631012322510183470700DA
:105114009306E00613090500130A0000639AD700FA
:10512400930717002326F50083471700130A10007E
:10513400B709008013040000930A900093C9F9FF93
:10514400938407FD93F7F40F63FAFA0263040A00E9
:10515400330480408320C10113050400032481012A
:1051640083244101032901018329C100032A810009
:10517400832A410013010102678000009305A00007
:1051840033859940EFD0801563448502931724003A
:10519400B3878700939717003384F4008327C900EB
:1051A400138717002326E90083C717006FF05FF900
:1051B4001304F0FF6FF01FFA130101FF2324810091
:1051C400232291002326110093040500EFF01FD23F
:1051D40013040500630C0500930730042320F50035
:1051E40013850400EFF05FF02326A4008320C100A0
:1051F40013050400032481008324410013010101E9
:1052040067800000130101FF23248100232611007D
:1052140013040500639805028327C50003C707002C
:10522400631C0700130500008320C10003248100D0
:105234001301010167800000138717002326E5008E
:1052440083C50700930780066396F50213050400DF
:10525400EFF09FE98327C4001307F00583C6070016
:10526400E392E6FC938717002326F400130510004D
:105274006FF09FFB93076007E396F5FA13050400AC
:10528400EFF09FE68327C4001307F00583C60700E9
:10529400E39AE6F8938717002326F4006FF01FFBC8
:1052A4000327C500930620051386050083470700DE
:1052B400638ED7009306F004639AD7028327C5024E
:1052C40093050002938737006F0000018327C5020E
:1052D4009305F00193872700130717002326F5028F
:1052E4002326E500930600006FF05FC413850500D4
:1052F400678000008327C500130101FF2324810078
:105304002326110083C707001307F00513040500C3
:105314006384E7041307E006639CE7001305F0FFCA
:105324008320C10003248100130101016780000070
:10533400EFF09FDB13051500E34205FE8327C4004D
:105344001307F00583C60700E39AE6FC938717006A
:105354002326F4006FF0DFFC130500006FF01FFE3E
:105364008327C5001307400583C607006382E6024E
:105374001305000067800000130500008320C100AE
:10538400032481008324410013010101678000008C
:10539400130101FF232481002322910023261100FD
:1053A400938717002326F50013040500EFF09FF4FC
:1053B40093040500E34205FC13050400EFF01FB35A
:1053C400E30C05FA930750002320F50023269500EB
:1053D4006FF0DFFA8327C5009306F00503C70700C3
:1053E4006312D708130101FF23248100232611002F
:1053F40023229100938617002326D50083C4170027
:10540400130405006382E402EFF01FCE1345F5FF99
:105414001355F5018320C100032481008324410036
:105424001301010167800000938727002326F500FC
:10543400EFF09FCB9307050013050000E3CC07FCB6
:1054440013079000635CF7008327C40003C70700B9
:10545400E31297FC938717002326F400130510002A
:105464006FF05FFB130510006780000093070500D1
:10547400638A0502032705028326450213050000FB
:105484006354D70283A6C701131627001307170016
:10549400B386C60023A0B60023A0E70213051000BC
:1054A400678000001305000067800000130101FFFE
:1054B400B7D602802324810023229100138405009F
:1054C40093040500232611001306100093050040E1
:1054D400130500059386C6DE63080406832784004B
:1054E4006344F60603A7C41163C0E5069387170057
:1054F4002324F400832704009387F7FF6366F504ED
:1055040093972700B387D70083A707006780070016
:1055140083A744149387170023A2F4148325C4009B
:105524001307170023AEE41013850400EFF01FF8EF
:105534008325040113850400EFF05FF783A7C411EA
:105544009387F7FF23AEF4108320C1000324810066
:105554008324410013010101678000008327C400F4
:1055640083A6070093075000E39AF6FA83A78413EF
:105574009387170023ACF4126FF05FFA032404013D
:105584006FF09FF50324C4006FF01FF58325051009
:10559400130101FF2324810023261100B307B50062
:1055A40023800700832785100326C51013040500F4
:1055B400E7800700832784128320C100232004107E
:1055C400938717002324F41203248100130101019B
:1055D4006780000003270510130101FF23248100C5
:1055E40023229100232611009307F00F13040500D2
:1055F400938405006314F700EFF05FF98327041028
:10560400138717002320E410B307F40023809700C6
:10561400230294108320C1000324810083244100C9
:105624001301010167800000130101FF232481009D
:1056340023229100232021012326110013090500B0
:1056440013840500B384C500631E94008320C10045
:105654000324810083244100032901001301010173
:105664006780000083450400130509001304140037
:10567400EFF05FF66FF05FFD930705009306F0020D
:1056840013050000638A070003A707006316D70009
:1056940003A7C700631407006780000083A70701FE
:1056A400130515006FF01FFE130101FE232C81006A
:1056B4001304050013850500232E11002326B100D1
:1056C400EF40112113060500130504000324810192
:1056D4008325C1008320C101130101026FF0DFF4AF
:1056E400130101FF232481002326110023229100AA
:1056F4002320210113040500EFF01F9F635CA00C1D
:105704000329C40083274400930405001305000003
:10571400B387274163CC970803278400B307990014
:105724002326F40013774700630C070083C60700A1
:10573400130740026396E600938717002326F400BC
:105744009307900063D29708B7E5028013068000A0
:10575400938585B813050900EF20D16D63160506FE
:10576400834789001307E002638AE7001307F00503
:105774006386E700130740026398E7040347990030
:105784009307E0046312F7048327C402B7E5028099
:105794001306500193876701B38797402326F402C9
:1057A400938545B913050400EFF05F8B2324A4020D
:1057B4008320C100032481008324410003290100C4
:1057C400130101016780000013860400930509009A
:1057D4006FF05FFD130500006FF09FFD130101FEE4
:1057E400232A910083248502232C8100232821016C
:1057F400232E110013040500138605001309200449
:105804008327C40003C707006302270323249402E9
:105814008320C1010324810183244101032901015F
:105824001305060013010102678000009387170027
:105834002326F400130504002326C100EFF05FEAD9
:105844000326C100930605009305D0041305040044
:10585400EFF0CFED130605006FF09FFA130101FD81
:1058640013860500B7E50280232481029385C5BA17
:10587400130405001305410023261102EF4041449F
:105884009305410013050400EFF01FE28320C102D9
:105894000324810213010103678000009307F002CF
:1058A40063DE05006780000003270500631CF70022
:1058B400638E0500032505019385F5FFE31605FEB8
:1058C4006780000013050000678000000325C50001
:1058D4006FF05FFD83270511638A070083A74700E4
:1058E40083A5C50003A507016FF05FFB93071000B4
:1058F400232CF5101305000067800000130101FE3E
:105904002328210123263101232441013709E30CF3
:10591400B789100037DA0280232C8100232A9100F2
:105924002322510123206101232E11009304050039
:1059340013840500930A8000130BC0021309190095
:1059440093891900130A0AF36304040283270400E9
:1059540063F2FA046368FB0413077001637AF704C3
:10596400938787FEB3D7F90093F717006382070480
:10597400130500006F00C006930610003397F6006D
:1059840033772701E31607FE6394D7020324040147
:105994006FF09FFB93972700B387470183A7070006
:1059A400678007009387E7FC1307B001E376F7FCF1
:1059B4008325C40013850400EFF05FF4E30805FCBD
:1059C4006F0000029305040013850400EFF09FF0BC
:1059D400E30005FA032705009307F002E31AF7F83A
:1059E4008320C1010324810183244101032901018E
:1059F4008329C100032A8100832A4100032B01006B
:105A04001301010267800000130101FE0327460011
:105A1400232A91008324860093871500232C810078
:105A24002328210123263101B387E700232E110007
:105A34000327C60093090500138905001304060013
:105A440063F6F406631E07026394040093042000C3
:105A540063E6F4040325040093850400EF30C131A8
:105A64006312050403250400EF2081389307100016
:105A74002320040023220400232404002326F4000A
:105A84008320C101032481018324410103290101ED
:105A94008329C1001301010267800000939414005C
:105AA4006FF01FFB2320A400232494008327C40049
:105AB400E39807FC83274400032504001306090028
:105AC400938509003305F500EF20513E8327040038
:105AD40003274400B3872701B387E7002380070027
:105AE40083274400B38727012322F4006FF05FF972
:105AF400832705001307800393F7D7FF6390E70418
:105B04008327C500130740061305000083A7C700B9
:105B140083A7070083C607006394E60283C71700C0
:105B24001307900613051000638CE70093F7F70D35
:105B3400938787FA13B517006780000013050000E8
:105B44006780000083270500130730061305000053
